:020000040800F2
:1000000000000220511C0008710900087309000853
:100010007509000877090008790900080000000048
:100020000000000000000000000000007B09000844
:100030007D090008000000007F0900088109000810
:10004000A11C0008A11C0008A11C0008A11C00089C
:10005000A11C0008A11C0008A11C0008A11C00088C
:10006000A11C0008A11C0008A11C0008A11C00087C
:10007000A11C0008A11C0008A11C0008A11C00086C
:10008000A11C0008A11C0008A11C0008A11C00085C
:10009000A11C0008A11C0008A11C0008A11C00084C
:1000A000A11C0008A11C0008A11C0008A11C00083C
:1000B000A11C0008A11C0008A11C0008A11C00082C
:1000C000A11C0008A11C0008A11C0008A11C00081C
:1000D000A11C0008A11C0008A11C0008A11C00080C
:1000E000A11C0008A11C000800000000A11C0008C1
:1000F000A11C0008A11C0008A11C0008A11C0008EC
:10010000A11C0008A11C0008A11C0008A11C0008DB
:10011000A11C0008A11C0008A11C0008A11C0008CB
:10012000A11C0008A11C0008A11C0008A11C0008BB
:10013000A11C0008A11C0008A11C0008A11C0008AB
:1001400000000000000000000000000000000000AF
:10015000A11C0008A11C0008A11C0008A11C00088B
:10016000A11C0008A11C0008A11C0008A11C00087B
:10017000A11C0008A11C0008A11C0008A11C00086B
:10018000A11C0008A11C0008A11C0008A11C00085B
:10019000A11C0008A11C0008A11C0008A11C00084B
:1001A000A11C0008A11C0008A11C0008A11C00083B
:1001B000A11C0008A11C0008A11C0008A11C00082B
:1001C000A11C0008A11C0008A11C0008A11C00081B
:1001D000A11C0008A11C0008A11C0008A11C00080B
:1001E000A11C0008A11C0008A11C0008A11C0008FB
:1001F000A11C0008A11C0008A11C0008A11C0008EB
:10020000A11C0008A11C0008A11C0008A11C0008DA
:10021000A11C0008A11C0008A11C0008A11C0008CA
:10022000A11C0008A11C0008A11C0008000000007F
:10023000A11C0008A11C000800000000A11C00086F
:10024000A11C0008A11C0008A11C0008A11C00089A
:10025000A11C0008A11C0008A11C0008A11C00088A
:10026000A11C0008A11C0008A11C0008A11C00087A
:10027000A11C0008A11C0008A11C0008000000002F
:10028000A11C0008A11C0008A11C0008000000001F
:1002900000000000A11C000810B5054C237833B9FC
:1002A000044B13B10448AFF300800123237010BD49
:1002B0003C04002000000000081E000808B5034BA5
:1002C0001BB103490348AFF3008008BD00000000E4
:1002D00040040020081E000880B59CB0BFF34F8F7B
:1002E000BFF36F8F684B0021C3F85012BFF34F8FDD
:1002F000BFF36F8F5A6942F400325A61BFF34F8FD8
:10030000BFF36F8FC3F88410BFF34F8FD3F88020F3
:1003100043F6E076C2F3C904C2F34E32A507520198
:1003200002EA060C284621464CEA0007013900F192
:100330004040C3F860724F1CF6D1203A12F1200FF2
:10034000EED1BFF34F8F5A6942F480325A61BFF346
:100350004F8FBFF36F8F00F079FB022000F016FD86
:1003600000230093494BDA6A22F00102DA62DB6A69
:1003700003F001030093464B9A6942F440429A61AC
:100380009A6902F440420092009A9A699404FCD55A
:100390004FF480334FF0010E0520A02102220424E7
:1003A00008251692189217941995CDE909E30023B0
:1003B000CDE9140109A80C9310931B931A93CDE96E
:1003C000122201F005F800B1FEE703234FF03F0CC5
:1003D0004FF480622146CDE901C34023CDE90305F6
:1003E00001A8CDE90533CDE9072301F00DFB00B1EC
:1003F000FEE700F0BBF900B1FEE7BFF34F8FBFF39C
:100400006F8F214B5A6922F400325A61C3F85002AF
:10041000BFF34F8FBFF36F8FC3F88400BFF34F8FCD
:100420005A6922F480325A61BFF34F8FD3F880208B
:1004300043F6E076C2F3C904C2F34E32A507520177
:1004400002EA060C284621464CEA0007013900F171
:100450004040C3F874724F1CF6D1203A12F1200FBD
:10046000EED1BFF34F8FBFF36F8F0A4B00221A609C
:10047000094B0A4A1B6813604FF01042126882F35E
:1004800008889847FEE700BF00ED00E00004005830
:100490000048025810E000E00400009058040020DA
:1004A0007B4B2DE9F04FD3F8D42091B0794D09243E
:1004B00042F480420026784F0BA9C3F8D420284686
:1004C000D3F8D4204FF040084FF00A0BDFF8D0A14A
:1004D00002F480424FF400790092009ADA6F42F4FD
:1004E0008042DA67DA6F22F48042DA67D3F8E020DC
:1004F00042F02002C3F8E020D3F8E02002F020020E
:100500000192019AD3F8E02042F00802C3F8E020FB
:10051000D3F8E02002F008020292029AD3F8E02019
:1005200042F02002C3F8E020D3F8E02002F02002DD
:100530000392039AD3F8E02042F02002C3F8E020AF
:10054000D3F8E02002F020020492049AD3F8E020CD
:1005500042F02002C3F8E020D3F8E02002F02002AD
:100560000592059AD3F8E02042F04002C3F8E0205B
:10057000D3F8E02002F040020692069AD3F8E02079
:1005800042F08002C3F8E020D3F8E02002F08002BD
:100590000792079AD3F8E02042F08002C3F8E020E7
:1005A000D3F8E02002F080020892089AD3F8E02005
:1005B00042F04002C3F8E020D3F8E02002F040020D
:1005C0000992099AD3F8E02042F04002C3F8E020F3
:1005D0004FF48062D3F8E03003F040030A930A9BA3
:1005E0000223CDE90B230323CDE90D630F9400F023
:1005F000DBFA01230BA93846CDF82C800D93CDF8FA
:100600003CB000F0D1FA4FF400630BA923480B93E0
:100610000D960F9400F0C8FA04230BA950460F94CE
:100620000B9300F0C1FA0BA92846CDF82C90CDF819
:100630003CB000F0B9FA08230BA950460F940B9375
:1006400000F0B2FA80230BA928460F940B9300F018
:10065000ABFA0BA93846CDF82C9000F0A5FA0BA9FF
:100660002846CDF82C8000F09FFA4FF480430BA968
:1006700038460B9300F098FA32460F215C2000F0C8
:100680003DFA5C2000F06CFA11B0BDE8F08F00BFBD
:10069000004402580014025800180258000C025876
:1006A000001C025800B54FF4407395B04FF04072F3
:1006B00011480C9305230F920222069300230B92FC
:1006C00006A913930093049303926A46CDE90D3370
:1006D000CDE91133102302934FF48003059340F2C8
:1006E0000113019341F2883300F0D9FD003018BFA7
:1006F000012015B05DF804FB5C04002000B54FF448
:10070000407395B041F2883217480C93062306A92E
:1007100006930023CDE90D330F930B931393CDE98B
:10072000113300F0BCFCE8B940F2022302224FF47E
:10073000800104900C48CDE900331023CDE902324A
:1007400005236A46CDE905134FF0407306A90F93C0
:1007500041F2883300F0A3FD003018BF012015B02E
:100760005DF804FB0120FAE75C0400202DE9F0436A
:100770007D4C9DB07D4B2046236000F074FC074605
:1007800008B10124ECE0FFF78BFE01250323C4E947
:1007900001351023E3604FF0006393FAA3F3B3FA3B
:1007A00083F34FF440762046E761013B2361402309
:1007B000C4E90567236200F0F7FB0028E1D14FF49C
:1007C00080774FF06609099041F2883205906946BA
:1007D0000D900697CDF80090CDE90700CDE90B000C
:1007E000204600F05CFC0028CBD14FF0990841F284
:1007F000883269462046CDF8008000F050FC002881
:10080000BFD141F28832694620460696CDF8009065
:1008100000F045FC0028B4D141F2883269462046F8
:10082000CDF8008000F03BFC0028AAD135231790BA
:10083000139041F288321B900EA914970E93CDE9C4
:100840001500CDE91900204600F029FC002898D1B8
:10085000FFF728FF002894D1B723149617900E9322
:1008600013901B90CDE91500CDE91900FFF746FF65
:10087000002886D141F288320EA9204600F00FFCF4
:1008800000287FF47EAFFFF70DFF00287FF479AFDB
:1008900085234FF440764FF04075ADF800000E937D
:1008A0000223139041F288320EA914961795CDE9D0
:1008B0001500CDE91830CDE91A002B4800F0EFFB08
:1008C00000287FF45EAF41F288326946264800F086
:1008D00085FC00287FF455AFFFF710FF0446002881
:1008E0007FF44FAF812341F288320EA91E480E9348
:1008F000BDF8003023F0F0031B051B0D43F400434B
:1009000043F08003ADF8003000F0C9FB00287FF40D
:1009100038AF41F288326946134800F003FC0028E2
:100920007FF42FAFED236A460EA90F480E934FF4C4
:1009300040631B9415934FF4405314961193052371
:10094000CDE9164513934FF000454FF08043CDE9B4
:100950000044CDE9195300F0F7FC002818BF01242A
:1009600020461DB0BDE8F0835C040020005000521A
:100970007047FEE7FEE7FEE7FEE770477047704707
:1009800000F092B81849194810B5D1F8883043F4EE
:100990007003C1F88830164B1A6842F001021A60E1
:1009A00000221A611C68204018609A61DA611A629C
:1009B0009A62DA621A635A639A63DA631A645A644F
:1009C000186820F4802018601A660A4B1B681B0CFC
:1009D0001B04B3F1005F02D2074B01221A604FF0F3
:1009E00000638B6010BD00BF00ED00E07FEDF6EA14
:1009F000004402580010005C08810051704700005C
:100A000038B50F4B0546187808B9012038BD4FF4AA
:100A10007A730C4AB3FBF0F31068B0FBF3F000F00C
:100A2000ADF804460028F0D10F2DEED80246294635
:100A30004FF0FF3000F062F8034B20461D60E5E701
:100A400008000020000000200C00002010B503204A
:100A500000F042F800F03CFF0F49104A8B69C3F3E5
:100A60000323D35C03F01F03D8400D4B18608B6940
:100A700003F00F03D35C03F01F03D840094B186049
:100A80000F20FFF7BDFF044618B9FFF7B7FF204658
:100A900010BD0124FBE700BF00440258201E0008DF
:100AA0000000002004000020034A044B11681B785A
:100AB0000B441360704700BFA8040020080000200A
:100AC000014B1868704700BFA8040020014B18684C
:100AD000000C70470010005C074A0002D36800F465
:100AE000E06023F4E0631B041B0C43F0BF6343F49A
:100AF00000330343D360704700ED00E0164B70B540
:100B0000DC684FF0FF36C4F30224C4F10705231D4F
:100B1000042D28BF0425062B06FA05F38CBF033CE1
:100B20000024002821EA030303FA04F306FA04F47C
:100B300022EA040443EA04034FEA0313DBB206DBB0
:100B400000F1604000F5614080F8003370BD00F0B6
:100B50000F00024A1354F9E700ED00E014ED00E045
:100B6000002808DB4209012300F01F0003FA00F00F
:100B7000014B43F82200704700E100E00138B0F17A
:100B8000807F0AD2064BF021064A5860002082F886
:100B90002310072298601A6070470120704700BF39
:100BA00010E000E000ED00E04FF0B04C00232DE934
:100BB000F74F724EE246DFF8D0B10A6832FA03F41A
:100BC00002D103B0BDE8F08F4FF0010E0EFA03FE24
:100BD0001EEA020200F0BD804C6824F01004022CD2
:100BE00014D14FEAD30803F007090F2500EB88085A
:100BF0004FEA8909D8F8204005FA09F524EA0505E5
:100C00000C6904FA09F42C43C8F820404FEA430861
:100C10004FF003094C6809FA08F9056804F0030469
:100C20006FEA090904FA08F409EA05052C4304608F
:100C30004D6825F01005013D012D11D88468CD685F
:100C400009EA040405FA08F525438560446824EAA6
:100C50000E0E4C68C4F300149C4044EA0E04446039
:100C6000C46809EA04098C6804FA08F444EA09042F
:100C7000C4604C68E4006CD5414D03F0030E4FF0A6
:100C80000F08D5F8F4404FEA8E0E44F00204C5F880
:100C9000F440D5F8F44023F0030505F1B04504F025
:100CA000020405F580650194019C08FA0EF4D5F85C
:100CB000089029EA0408334CA0424CD004F5806423
:100CC000A0424AD004F58064A04248D0584548D09C
:100CD00004F50064A04246D004F58064A04244D0EC
:100CE00004F58064A04242D004F58064A04240D064
:100CF00004F58064A0423ED004F58064A0420CBF9D
:100D000009240A2404FA0EF444EA0804AC60D5432A
:100D10004F683468FF034CBF14432C4034604F6865
:100D20007468BF034CBF14432C4074604F68DCF8F8
:100D30000040FF024CBF14432C40CAF800404F68EB
:100D4000DAF80440BF0254BF05EA04022243CCF89B
:100D50000420013331E70024D4E70124D2E7022440
:100D6000D0E70324CEE70424CCE70524CAE7062411
:100D7000C8E70724C6E70824C4E700BF800000587E
:100D80000044025800000258000C025838B5104CBC
:100D9000E36813F0040FE36805D103F00703181AA2
:100DA00018BF012038BD23F007031843E060FFF7A8
:100DB00087FE054663689B0401D50020F2E7FFF734
:100DC0007FFE401BB0F57A7FF4D90120EAE700BF2F
:100DD000004802584B6A2DE9F04733B1B2F1406F39
:100DE00003D08B6A0468013B23618B690C6A002B7A
:100DF00067D00568002C35D08B68EB61CC694B6AF5
:100E000005688F69D1F820C0D1F83480D1F810E09E
:100E10000E68D1E90BA9A4B144EA0A04144344EAD8
:100E2000090444EA08042343CC6843EA0E0343EA76
:100E30000C0323433B434C69334343EA84436B61D4
:100E40002AE04AEA0904144344EA0804234343EA33
:100E50000E0343EA0C033B4333434E6943EA8646A1
:100E60006E612CE04E69CC69D1F80090B604D1F8DF
:100E700024804F6BD1E90BECACB11C43CB6814431D
:100E800044EA090444EA080444EA0E0444EA0C046F
:100E90003C431C4334436C61B2F1406F0FD0036894
:100EA0004A689A610BE043EA0903134343EA0803E3
:100EB00043EA0E0343EA0C033B4333436B61BDE853
:100EC000F08744B303688C68DC61CC69D1F8248076
:100ED00005688E69D1F820C04B6BD1F810E0D1E9DC
:100EE0000B796CB13C43144344EA09042343CC68B6
:100EF00043EA080343EA0E0343EA0C0323439AE759
:100F000047EA09042243134343EA080343EA0E0372
:100F100043EA0C03A0E7CD694B6A7DB12B43CD6A50
:100F2000046813432B430D6B2B434D6B2B43CD6850
:100F30002B434D6943EA85436361ADE7002BBED087
:100F4000CC6A0068234313430A6B13434A6B134371
:100F50004A6943EA82434361B1E72DE9F041069DC6
:100F600004460F461646984621688A683A4214BFDE
:100F700001220022B24201D1002011E06B1CF4D00A
:100F8000FFF79EFDA0EB0800A84201D8002DEBD191
:100F90000423012084F84130636C43F0010363644F
:100FA000BDE8F0817047000037B50446FFF788FDC3
:100FB0000546002C4FD094F84030012B4DD0012332
:100FC00084F8403094F8412002F0FF033AB984F8E5
:100FD00040302046FFF7E6FF41F28833A3642068E3
:100FE000A1680268013922F4706242EA01222021DC
:100FF00002600022A36C204600932B46FFF7ADFF52
:1010000020BB2168E569E3680A682B43256A22F062
:101010007F422B43656822F0D00243EA0563134305
:101020000B602168D4E905324D681343226943EA15
:1010300002430B4A2A4013434B602268136843F073
:10104000010313600123606484F84130002384F8B5
:10105000403003B030BD0120FBE70220F9E700BFBC
:10106000FEF8E0FF704710B50446A0B190F840309C
:10107000012B12D00268012380F84030136823F05E
:1010800001031360FFF7EEFF0020606484F8410065
:1010900084F8400010BD0120FCE70220FAE72DE9AA
:1010A000F34704468A469146FFF70AFD94F840301C
:1010B0008046012B34D00123022784F8403094F875
:1010C0004160F6B29E4229D100220346CDF800903D
:1010D00020216264204684F84170FFF73EFF0546F8
:1010E000A8B9024651462046FFF774FEDAF82430CC
:1010F0005BB9CDF800904346324639462046FFF7AB
:101100002CFF054618B92368DF6084F8416000238E
:1011100084F84030284602B0BDE8F0873D46F6E747
:101120000225F7E72DE9F341044688461746FFF705
:10113000C7FC94F840300646012B4DD001232568AA
:1011400084F8403094F84100C0B2984242D1002364
:101150006364B8F1000F38D0122384F841302B6952
:101160000133E3622B69C4F824800133A3626B6905
:1011700023F040636B61E36A9BB900973346012219
:1011800002212046FFF7E9FE10B923680222DA6047
:10119000012384F84130002384F8403002B0BDE8D8
:1011A000F08100973346012204212046FFF7D5FE47
:1011B0000028EDD1636A1B7885F82030636A01331B
:1011C0006362E36A013BE362D5E7636C43F00803C3
:1011D0006364E0E70220DEE70220DFE72DE9F34168
:1011E000044617468846FFF76BFC25680646AA6941
:1011F00094F84030012B50D0012384F8403094F80B
:101200004100C0B2984246D100236364B8F1000F98
:101210003CD0222384F841302B690133A3632B692E
:10122000C4F83080013363636B6923F0406343F09B
:1012300080636B6123689A61A36B9BB90097334607
:10124000012202212046FFF788FE10B923680222FE
:10125000DA60012384F84130002384F8403002B082
:10126000BDE8F08100973346012206212046FFF7B2
:1012700074FE0028EDD195F82020236B1A70236BA3
:1012800001332363A36B013BA363D5E7636C43F096
:1012900008036364E0E70220DEE70220DFE72DE9D0
:1012A000F7430446984689461646FFF709FC94F82A
:1012B00040300746012B45D0012384F8403094F894
:1012C0004150EDB29D423BD142230022CDF8008037
:1012D0002021626484F8413003462046FFF73DFE3A
:1012E00040BB2368204632689A62236872685A625B
:1012F0002368B268DA62216833690A6843F48003BC
:1013000022F4400213434FF000620B604946F36839
:10131000C9F82830FFF75EFDCDF800803B462A462D
:1013200008212046FFF719FE20B923680822DA6059
:1013300084F84150002384F8403003B0BDE8F083C6
:101340000220F7E70220F8E7F7B5044617460E46F5
:10135000FFF7B6FB94F840200346012A36D001225D
:1013600084F8402094F84120012A2DD100228221C6
:101370002046626484F84110A16C00912021FFF79F
:10138000ECFD0546D0B922687968136823F008039C
:101390000B4313607B68082B0AD123683A681A63F1
:1013A00010222368DA602268136843F48013136004
:1013B0004FF0406231462046FFF70CFD002384F8D1
:1013C0004030284603B0F0BD0225F7E70225F8E7D4
:1013D000F8B5044608B9012090E00368DD075ED443
:1013E0002368980700F1AC802368DA0623D5AB4B5D
:1013F0001A69996A02F03802082A07D0182A40F0C0
:10140000008101F00302012A40F0FB801B68DB052C
:1014100002D5E369802BDED1FFF758FB41F20303CD
:101420009E4A9842216A00F2E580536823F0F8430F
:1014300043EA816353602368190700F11B81236825
:101440009A0600F1408123685D0722D5944D2B68F0
:1014500043F480732B60FFF733FB06462B68DA05F5
:1014600040F15681A2688D4B012A40F058811A6FD5
:1014700042F001021A67A368002B00F06781FFF7B2
:101480001FFB864D064641F288372B6F9B0740F1C4
:101490005681606A002840F0698100202EE07F4B71
:1014A0001A69996A02F03802102A05D0182A0AD15E
:1014B00001F00302022A06D11B68990390D56368E4
:1014C000002B8DD187E76268744BB2F5803F16D14F
:1014D0001A6842F480321A6063680BB3FFF7F0FABF
:1014E0006E4D064641F288372B689A033FF578AF78
:1014F000FFF7E6FA801BB842F6D90320F8BD3AB9E7
:101500001A6822F480321A601A6822F48022E2E714
:10151000B2F5A02F1A68F4D142F480221A60D7E7FE
:10152000FFF7CEFA5D4D064641F288372B689B03E4
:101530007FF556AFFFF7C4FA801BB842F6D9DCE757
:10154000564B1A69996A12F0380203D0182A1BD137
:101550008E0719D11B685D0703D5E368002B3FF4A4
:101560003AAFFFF7B3FA41F203034C4A98422169BC
:10157000536895BF23F47C3323F0FE4343EA0133E1
:1015800043EA016353602FE7444DE2682B680AB3D6
:1015900023F0190313432B60FFF792FA06462B68DA
:1015A000580711D5FFF792FA41F2030322699842D6
:1015B0006B6895BF23F47C3323F0FE4343EA023388
:1015C00043EA02636B600FE7FFF77AFA801B022899
:1015D000E5D992E723F001032B60FFF771FA064685
:1015E0002B6859077FF500AFFFF76AFA801B0228C6
:1015F000F6D982E7D36823F07C5343EA0163D360D2
:1016000019E7E369254D23B32B6843F080032B6072
:10161000FFF756FA06462B68DF050DD5FFF756FA99
:1016200041F20303226A98420CD86B6823F0F84316
:1016300043EA82636B60FEE6FFF742FA801B0228F2
:10164000E9D95AE7EB6823F07C5343EA0263EB6085
:10165000F1E62B6823F080032B60FFF731FA064692
:101660002B68D8057FF5E7AEFFF72AFA801B022822
:10167000F6D942E76369094DA3B16B6F43F00103EB
:101680006B67FFF71DFA06466B6F9B073FF5D7AEFA
:10169000FFF716FA801B0228F6D92EE700440258FD
:1016A000004802586B6F23F001036B67FFF708FADD
:1016B00006466B6F9F077FF5C2AEFFF701FA801BEE
:1016C0000228F6D919E7A369804D83B12B6843F44A
:1016D00080532B60FFF7F4F906462B6898043FF51A
:1016E000B2AEFFF7EDF9801B0228F6D905E72B68AB
:1016F00023F480532B60FFF7E3F906462B68990427
:101700007FF5A1AEFFF7DCF9801B0228F6D9F4E6DD
:10171000FFF7D6F9801B64287FF6A0AEEDE63AB954
:101720001A6F22F001021A671A6F22F00402A1E672
:10173000052A1A6FF5D142F004021A6797E6FFF7FF
:10174000BFF9801BB8427FF6A0AED6E6FFF7B8F926
:101750005E4D064641F288372B6F98077FF599AEAC
:10176000FFF7AEF9801BB842F6D9C6E6574D2B6994
:1017700003F03803182B7AD02B68022823F08073EB
:101780002B6067D1FFF79CF906462B6899015BD463
:10179000AB6AA26A23F47C7323F003031343E26A67
:1017A00043EA0213AB62636BA26B013B013A5B023B
:1017B00012049BB202F4FE021343226B013AC2F3FD
:1017C00008021343E26B013A120602F0FE42134391
:1017D0002B63EB6A23F00103EB626B6BA26C23F4C7
:1017E0007F4323F0F80343EAC2036B63EB6A226C86
:1017F00023F00C031343EB62EB6A626C23F00203E9
:10180000324C1343EB62EB6A43F48033EB62EB6AD6
:1018100043F40033EB62EB6A43F48023EB62EB6A40
:1018200043F00103EB622B6843F080732B60FFF7FA
:1018300047F9054623689A013FF52FAEFFF740F9B7
:10184000401B0228F6D958E6FFF73AF9801B022818
:101850009BD952E6FFF734F904462B689B017FF5CC
:101860001CAEFFF72DF9001B0228F6D945E601282A
:10187000AA6A2B6B3FF442AE02F00301A06A8142D8
:101880007FF4A9ADC2F30512E16A8A427FF4A3ADE9
:10189000226BC3F30801013A91427FF49CAD626B65
:1018A000C3F34621013A91427FF495ADA26BC3F395
:1018B0000641013A91427FF48EADE06BC3F30663BB
:1018C0000138181A18BF012018E600BF004402585A
:1018D000464B10B51A6902F03802102A00F08480D5
:1018E000182A0CD00AB1424810BD1A68414812F0BB
:1018F000200FF9D01B68C3F3C103D840F4E7996AFD
:10190000986ADA6AC0F305105C6B0028ECD007EE29
:10191000900A02F00102C4F3CC00B7EE006AF8EEC0
:10192000E76A424307EE902A01F00302012AFAEE29
:10193000E97A02D00FD3022A48D01B6BC3F3080305
:1019400007EE103AB8EEC77A77EE277A77EE867A06
:101950009FED296A37E01A68920627D51968254A4B
:10196000C1F3C1011B6BCA40C3F3080307EE102A81
:10197000F8EEC75A85EEA67A06EE903AF8EEE66AD9
:1019800076EEA77A77EE867A184B67EE877A1B6B2E
:10199000C3F34623013307EE103AF8EEC76A87EE29
:1019A000A67AFCEEC77A17EE900A9DE71B6BC3F38D
:1019B000080307EE103AB8EEC77A77EE277A77EE8B
:1019C000867A9FED0E6A86EE267ADDE71B6BC3F3FF
:1019D000080307EE103AB8EEC77A77EE277A77EE6B
:1019E000867A9FED076AEEE706487DE700440258D5
:1019F00000093D000090D0030024744A0024744C78
:101A000020BCBE4B40787D012DE9F0410D460446D7
:101A100010B90120BDE8F081884A136803F00F0374
:101A20008B42C0F0928023685E0700F19A802368A1
:101A300018070BD5824A6069D16901F070018842AC
:101A400004D9D36923F070030343D3612368D90613
:101A50000BD57B4AA069D16901F4E061884204D9C1
:101A6000D36923F4E0630343D36123689A060BD55B
:101A7000734AE069116A01F07001884204D9136A5F
:101A800023F070030343136223689B070BD56C4A52
:101A9000E068916901F00F01884204D9936923F04D
:101AA0000F03034393612368DF0768D423689E070D
:101AB00000F19B80614A136803F00F03AB4200F210
:101AC000A2802368580700F1AA80236819070BD564
:101AD0005B4A6069D16901F07001884204D2D36920
:101AE00023F070030343D3612368DA060BD5544A0D
:101AF000A069D16901F4E061884204D2D36923F47A
:101B0000E0630343D36123689B060BD54C4AE0692D
:101B1000116A01F07001884204D2136A23F0700345
:101B200003431362FFF7D4FE454B464A9B69C3F358
:101B30000323D35C03F01F03D840434B1860434B8F
:101B4000BDE8F0411868FEF75BBF136823F00F0390
:101B50000B431360136803F00F038B427FF459AFFC
:101B600061E7374A2069916901F0700188427FF688
:101B70005EAF936923F070030343936157E7304BE3
:101B8000A1689A6922F470620A439A6161681A68CE
:101B900002291DD112F4003F3FF43BAF1A6941F214
:101BA0008838274E22F007020A431A61FEF788FFA1
:101BB00007463369626803F03803B3EBC20F3FF4A2
:101BC00075AFFEF77DFFC01B4045F2D9032021E72A
:101BD000032902D112F0007FDEE7012902D112F4BD
:101BE000807FD9E712F0040FD6E7154AE0689169C3
:101BF00001F00F018842BFF45DAF936923F00F033A
:101C00000343936156E7136823F00F032B431360DC
:101C1000136803F00F03AB427FF4FBAE51E7084AB1
:101C20002069916901F070018842BFF44EAF936959
:101C300023F070030343936147E700BF0020005285
:101C400000440258201E0008000000200C00002064
:101C5000DFF834D0002103E00C4B5B5843500431D3
:101C60000B480C4B42189A42F6D30B4A02E0002371
:101C700042F8043B094B9A42F9D3FEF783FE00F089
:101C800011F8FEF729FB704700000220401E0008F3
:101C9000000000203C0400203C040020D004002070
:101CA000FEE7000070B50D4E0D4D761BB61006D048
:101CB0000024013455F8043B9847A642F9D1094E57
:101CC000094D761B00F0A0F8B61006D000240134B0
:101CD00055F8043B9847A642F9D170BD341E000860
:101CE000341E00083C1E0008341E0008024B13B1CD
:101CF000024800F005B87047000000000D1D000804
:101D0000002301461A46184600F01EB838B50A4CA2
:101D10000A4D641BA4100AD004F18043013B05EB7B
:101D20008305013C55F804399847002CF9D1BDE8EA
:101D3000384000F06FB800BF401E00083C1E00088D
:101D4000704700BF704700BF2DE9F8432B4D064692
:101D5000286898460F469146FFF7F2FF284B1C680B
:101D6000D4F84831002B3DD05A681F2A0DDC02F10F
:101D7000010C16BB0232C3F804C0286843F8227075
:101D8000FFF7E0FF0020BDE8F8831E4B7BB34FF464
:101D9000C870AFF30080034648B3D4F8482100214F
:101DA000C0E900214FF0010CC4F848010A46C0F810
:101DB0008811C0F88C11002EDCD003EB82010124C5
:101DC000C1F88890D3F8880194402043022EC3F8CC
:101DD0008801C1F80881CDD1D3F88C110C43C3F828
:101DE0008C41C7E704F5A673C4F84831BCE72868FE
:101DF000FFF7A8FF4FF0FF30C5E700BF3804002011
:101E0000301E000800000000F8B500BFF8BC08BC98
:101E10009E467047F8B500BFF8BC08BC9E467047A8
:101E20000000000001020304010203040607080980
:101E300010000020ED1C0008BD02000899020008F7
:101E40000090D0030090D0030100000010000000BB
:101E500000000000FC02002064030020CC030020EE
:101E60000000000000000000000000000000000072
:101E70000000000000000000000000000000000062
:101E80000000000000000000000000000000000052
:101E90000000000000000000000000000000000042
:101EA0000000000000000000000000000000000032
:101EB0000000000000000000000000000000000022
:101EC0000000000000000000000000000000000012
:101ED0000000000000000000000000000000000002
:101EE00000000000000000000000000000000000F2
:101EF00000000000000000000100000000000000E1
:101F00000E33CDAB34126DE6ECDE05000B000000A5
:101F100000000000000000000000000000000000C1
:101F200000000000000000000000000000000000B1
:101F300000000000000000000000000000000000A1
:101F40000000000000000000000000000000000091
:0C2270000000000000000000AC04002092
:0200000490006A
:100000000000082481030090E9360090ED3600904E
:10001000F1360090F5360090F936009000000000AF
:1000200000000000000000000000000021D6009049
:10003000FD36009000000000B1D60090F5CC009095
:10004000D1030090D1030090D1030090D103009020
:10005000D1030090D1030090D1030090D103009010
:10006000D1030090D1030090D1030090D103009000
:10007000D1030090D1030090D1030090D1030090F0
:10008000D1030090D1030090D1030090D1030090E0
:10009000D1030090D1030090D1030090D1030090D0
:1000A000D1030090D1030090D1030090D1030090C0
:1000B000D1030090D1030090D1030090D1030090B0
:1000C000D1030090D1030090D1030090D1030090A0
:1000D000D1030090D1030090D1030090D103009090
:1000E000D1030090D103009000000000D1030090E4
:1000F000D1030090D1030090D1030090D103009070
:10010000D1030090D1030090D1030090D10300905F
:10011000D1030090D103009001370090D1030090EB
:10012000D1030090D1030090D1030090D10300903F
:10013000D1030090D1030090D1030090D10300902F
:1001400000000000000000000000000000000000AF
:10015000D1030090D1030090D1030090D10300900F
:10016000D1030090D1030090D1030090D1030090FF
:10017000D1030090D1030090D1030090D1030090EF
:10018000D1030090D1030090D1030090D1030090DF
:10019000D1030090D1030090D1030090D1030090CF
:1001A0000D370090D103009019370090D1030090D3
:1001B000D1030090D1030090D1030090D1030090AF
:1001C000D1030090D1030090D1030090D10300909F
:1001D000D1030090D1030090D1030090D10300908F
:1001E000D1030090D1030090D1030090D10300907F
:1001F000D1030090D1030090D1030090D10300906F
:10020000D1030090D1030090D1030090D10300905E
:10021000D1030090D1030090D1030090D10300904E
:10022000D103009025370090313700900000000086
:10023000D1030090D103009000000000D103009092
:10024000D1030090D1030090D1030090D10300901E
:10025000D1030090D1030090D1030090D10300900E
:10026000D1030090D1030090D1030090D1030090FE
:10027000D1030090D1030090D10300900000000052
:10028000D1030090D1030090D10300900000000042
:0802900000000000D103009002
:1002A00010B5054C237833B9044B13B10448AFF3B0
:1002B00000800123237010BD5801002400000000BD
:1002C0006C74029008B5034B1BB103490348AFF3AC
:1002D000008008BD000000005C0100246C740290E6
:1002E00001F0FF01102A2BDB10F0070F08D010F8E7
:1002F000013B013A8B422DD010F0070F42B3F6D1EB
:10030000F0B441EA012141EA014122F007047FF003
:1003100000070023F0E80256083C85EA010586EA5A
:10032000010685FA47F5A3FA87F586FA47F6A5FA96
:1003300087F68EB9EED1F0BC01F0FF0102F00702A2
:1003400032B110F8013B013A83EA010313B1F8D14D
:100350000020704701387047002D06BF354603382E
:10036000073815F0010F07D1013015F4807F02BF67
:10037000013015F4C03F0130F0BC0138704700BFB8
:10038000DFF834D0002103E00C4B5B5843500431BC
:100390000B480C4B42189A42F6D30B4A02E000235A
:1003A00042F8043B094B9A42F9D307F06DFB26F063
:1003B00069FB02F057FC70470000082484B30290E8
:1003C000000000245401002458010024A841022404
:1003D000FEE70000704700BF704700BF08B501F09E
:1003E0008BFFBDE8084001F00BBF00BF01F086BFE6
:1003F00040687047416070474FF0E020084B094A61
:10040000D0F8FC1D41F08071C0F8FC1DD3F8B01F7E
:100410000A43C3F8B02F1A6842F001021A6070470D
:10042000001000E055CEACC5511A01EB5301B1FBF1
:10043000F3F07047014B5868704700BF001000E0B0
:10044000704700BF10B504460C2125F05AFF204626
:1004500010BD00BF03680C4A1B6910B5044649B1C2
:1004600093420DD1094B5868A26863689B1A0344F4
:10047000636010BD934205D1044B5868A06010BD65
:100480009847F1E79847F9E735040090001000E03D
:10049000704700BF0000000000B585B008220023AF
:1004A000002069469FED067BCDE902238DED007BA0
:1004B00007F0F8F905B05DF804FB00BFAFF300806A
:1004C000E00100001001000030B585B000200D46AD
:1004D000144601A90190CDE9020007F071FA0198D4
:1004E00020B10120DDE902232A60236005B030BD80
:1004F00010B50446042125F004FF204610BD00BFBE
:100500000821104808B507F0C1FF012801D10E4BA2
:10051000186080210D4807F0B9FF012801D10A4B6E
:1005200058604021094807F0B1FF012801D1064B6E
:1005300098604021064807F0A9FF012801D1024B2D
:10054000D86008BD00180258740100240004025845
:1005500000000258032827D8DFE800F01D140B0222
:10056000124B40211248DA68B2FA82F2520907F0BF
:1005700093BF0E4B40210F489A68B2FA82F252099B
:1005800007F08ABF094B80210A485A68B2FA82F202
:10059000520907F081BF054B082107481A68B2FAD3
:1005A00082F2520907F078BF704700BF740100243F
:1005B000000002580004025800180258032827D8E7
:1005C000DFE800F01D140B02124B40211248DA68DC
:1005D000003A18BF012207F05FBF0E4B40210F48C1
:1005E0009A68003A18BF012207F056BF094B8021D4
:1005F0000A485A68003A18BF012207F04DBF054B60
:10060000082107481A68003A18BF012207F044BFC2
:10061000704700BF74010024000002580004025813
:1006200000180258032813D8DFE800F00E0A06026B
:100630004021084807F034BF4021074807F030BF89
:100640008021054807F02CBF0821044807F028BF87
:10065000704700BF000002580004025800180258FA
:1006600000207047012380F8781080F879307047B7
:10067000002070470A1E034B416418BF01221A7004
:10068000704700BF6B35022400207047836B08461B
:1006900003B11847704700BF4FF6FF70704700BFA7
:1006A000704700BF08B5094B1B888B4208D8084B20
:1006B0001B88934204D80748074B01801A8008BD65
:1006C000064B9E21064A074825F04AFE6035022463
:1006D00062350224663502246835022404750290CE
:1006E00068750290AC75029010B5044610F05AFC83
:1006F00023682046D3F8AC30BDE81040184700BF4F
:1007000001F0F4BE01F0F8BE10B501F0E1FF1248AF
:100710000023C0F88430BFF34F8FD0F8803043F609
:10072000E074C3F34E3CC3F3C90E4FEA4C1C0CEA11
:100730000401734641EA8372013BC0F874225A1CDB
:10074000F8D1ACF1200C1CF1200FF0D1BFF34F8F8A
:10075000BFF36F8F10BD00BF00ED00E001F0A2BE3F
:1007600002F0B4B802F09EB801F0A6BE10B504467F
:100770000FF094FF60680368BDE810401B691847DC
:100780000FF062BE10B50446882125F0BAFD204660
:1007900010BD00BF90F87A301BB1406803681B6839
:1007A00018471846704700BF90F8782090F834300A
:1007B0009A420B4B1A780BD04AB90A4A4FF0010CF7
:1007C0000949108883F800C00B880880138070479F
:1007D000002AFCD0034A4FF0000C0349F1E700BFA8
:1007E0006435022462350224603502244068044ADC
:1007F00003689B69934201D100207047184700BFEE
:1008000061060090A9B10264003AC16318BF0122D9
:100810000C490A7002680C49D2F88C208A4206D131
:10082000191E0A4A436418BF012111707047194606
:100830001047074B40F2D221064A074810B525F071
:100840008FFD00BF6A350224750600906B350224C7
:10085000F47502902C760290AC75029008B503688E
:100860000446174DD3F880309847236820469B6F85
:10087000984701F0E3F8236820461B6F9847012250
:100880000421104807F008FE012280210E4807F0DD
:1008900003FE01220D48114607F0FEFD01F0CEF8DF
:1008A000236820461B6FAB4207D110F07BFB236807
:1008B0002046D3F8AC309847F0E79847EEE700BF02
:1008C000E906009000000258000C02580028025867
:1008D00038B5044602F004F817482368E16BD3F8F2
:1008E0008850226C854219D1F9B1003A1349D3F8E6
:1008F0008C3018BF012212488B421249027011D16C
:10090000114B012261641A7004F17C052846FFF73F
:1009100073FD0123256184F8703038BD094B2046F2
:10092000A847F1E720469847EEE7084B40F2D2216E
:10093000074A084825F014FD050800907506009048
:100940006A350224000000D06B350224F475029051
:100950002C760290AC75029008B5074B28B1186848
:10096000012110F039FB012008BD0146186810F084
:1009700033FB012008BD00BF6C350224406970477D
:1009800090F84000704700BF036B0BB10120704727
:10099000C06A003818BF0120704700BF80687047E8
:1009A000704700BF04308C460FC88CE80F007047BA
:1009B000704700BF08B5034A40F2C511024B034817
:1009C00025F0CEFC5877029054770290B4770290CD
:1009D00010B50446482125F094FC204610BD00BF08
:1009E0002DE9F04F4A4D83461C46C068022383B070
:1009F000484F2B6103074FF47073474E18BF20F028
:100A00000F00DFF840A16B6018BF1030DBF810302A
:100A1000DFF834812860000913F00F03DFF82C9110
:100A2000E86000EB400018BFC3F11003C001AB60E9
:100A300000900020394B3A4D38602C601860394CDA
:100A4000394BCAF80000206018603070DAF80030C6
:100A50003074364806EB0313354D016035485B684A
:100A600002604FF450423448344C9FED277B86EDB2
:100A7000027B86ED067B08F03FFEDBF84430C8F8C9
:100A800000302B6813B1D9F8003063BBD8F80000F0
:100A9000037A2BB9214B1B681B01F35C012B24D07B
:100AA0003B68012B06D1DAF800301B01F35C0BB96F
:100AB0002B6813B3022323602368022B09D0236819
:100AC000012BDED100232B60C9F8003003B0BDE854
:100AD000F08F1B4B4FF0FF3118680CF093FA23682E
:100AE000012BCED1EEE70123E5E7D9F80030002B4A
:100AF000D6D103681B699847D2E702210E483B60B4
:100B000008F042FF0223D6E70000000000000000CA
:100B1000905B0024BC5B00240800002488010024B2
:100B2000AC5B0024B85B00248C010024C05B002473
:100B3000B45B0024C45B002448920024B05B002412
:100B4000CC5B0024C85B0024A85B00248401002443
:100B5000F8B5036801292F4E0446DB6A38BF01212E
:100B6000B3420D4642D1836899422AD86B1EE2698E
:100B7000206B02EB031750B3A36B0F2B41D9036813
:100B800007F10806DB6831469847206B1022616B3D
:100B900003681B699847B0B1236BE663BBB1626B16
:100BA000937A517A1B0443EA0123117AD27A0B43D8
:100BB00043EA0263226A6561043A1A44A261F8BDFD
:100BC000A3681D46D2E70D2384F84030E4E707F11F
:100BD0001003E26AD118D25C48788B78C9781B047C
:100BE00042EA016243EA00231343E3E79847854260
:100BF000BCD92368DB6AB342E2D020469847054659
:100C0000B4E70920044B054A9F2184F840000448BA
:100C100025F0A6FB9D0900900478029018780290B8
:100C2000B4770290000000002DE9F04F0446006BFD
:100C300083B01546A669002800F0AD80A36B072B92
:100C400040F2B98003683146DB689847206B082280
:100C5000616B03681B699847002800F09180A769C1
:100C6000206B3B1DE663002800F0AE809B1B08371D
:100C7000D4E90D62F118F35C8E7891F801C0360466
:100C800046EA0C261E43CB7846EA0366B242C0F021
:100C9000928003683946DB689847206B3246616B67
:100CA00003681B69984710B90D2384F84030616BC5
:100CB000E763002D58D0484B0022484F1D60484B39
:100CC0003A60DB68474D03EB4303DFF844A1DFF8EC
:100CD00044B1DB014448CBF800200093434BCAF8F1
:100CE00000202A701A602A74DAF800300260404A44
:100CF00005EB03133F4811603F4A5B6816604FF4F1
:100D000050423E4E3E4CDFF81081DFF810919FEDCF
:100D1000307B85ED027B85ED067B08F0EDFC17E06E
:100D2000D8F80000037A2BB9DBF800301B01EB5C2C
:100D3000012B1DD03B68012B06D1DAF800301B01D6
:100D4000EB5C0BB93368FBB10223236023685BB90A
:100D50003368002BE4D0D9F80030002BE0D0012319
:100D600023602368002BF3D0012003B0BDE8F08F8F
:100D7000D9F80030002BDDD103681B699847D9E70B
:100D80000D2384F840306AE702211A483B6008F0DE
:100D9000FBFD0223D9E7331DE16A0836CA18CB5C94
:100DA000314450789678D278360443EA026346EAB2
:100DB00000261E437DE70920124B134A9F2184F829
:100DC0004000124825F0CCFA3E46E5E7AFF300803C
:100DD0000000000000000000AC5B0024BC5B0024AD
:100DE000905B002408000024B85B00248C010024E0
:100DF000C05B002448920024C45B0024B45B002440
:100E0000B05B00240478029018780290B4770290C6
:100E1000C85B002488010024A85B0024840100240E
:100E200043692DE9F047002B00F0C0800546006BB8
:100E3000AC69002800F0A080AB6B072B40F2AB80C0
:100E400003682146DB689847286B0822696B0368B2
:100E50001B699847002800F08B80AB69286B1A1D2E
:100E6000EC63002800F08A80121B6C6BA118A25C56
:100E70008C784E78240444EA06241443CA7844EA61
:100E800002640D2743F230063AE0AB6B072B40F2C9
:100E9000828003682146DB689847286B0822696BCB
:100EA00003681B69984708B985F84070286BAB69DF
:100EB000EC63002878D01B1B696BCA18CB5C947953
:100EC00092F805A0240492F804C092F8019044EA34
:100ED0000A24D17992F8038043EA092392F802E0C8
:100EE00044EA0C044EEA082244EA016446F2643102
:100EF000B34208BF8A420CBF0123002335D0AB693F
:100F00001C44AB6A04F108029A4229D26B69093485
:100F1000013324F00104C5E905340028B5D1E96A9C
:100F200004F1040EA21C01EB040C0B5D9CF80140C3
:100F300001EB0E0C43EA04238C188A5C647811F8E8
:100F40000E1042EA04229CF801E09CF802409CF852
:100F500003C0240441EA0C6144EA0E240C43C5E7B3
:100F600001212A6A0023C5E905121846BDE8F08769
:100F70000D2385F8403070E7221D2346EC6AA11846
:100F8000A25C4E788C78C978240442EA016244EA73
:100F90000624144375E70920074B084A9F2185F86A
:100FA0004000074825F0DCF91C46B8E7054BE52171
:100FB000054A034825F0D4F9047802901878029085
:100FC000B47702905C780290A878029043692DE98A
:100FD000F041002B00F0AD800446006B0E46A56981
:100FE00000285FD0A36B072B40F2A9800368294635
:100FF000DB689847206B0822616B03681B69984780
:1010000000284AD0206BA169E563002849D001F18E
:10101000040C8A1C636BACEB050C521B4D1B03EBE1
:101020000C0713F80CE003EB050813F805C098F85B
:10103000015097F801804CEA052CBD78FF782D040B
:1010400045EA082545EA0E0545EA07659F189B5CB9
:101050007A7843EA02274A19A36A02F1080E9E45EC
:1010600014D243F230039C4539D146F264339F4297
:1010700035D1002D37D172460132636A22F0010268
:101080009A42A26102D00120BDE8F0810122236AC8
:101090000020C4E90523BDE8F0810D2384F8403029
:1010A000B0E70D46E36AAF1C2A1D591913F805C0B5
:1010B000981849784CEA012C2946DD19DF5D6D78D6
:1010C0009A5C47EA052790F801E08578C37800200C
:1010D0002D0442EA036345EA0E251D43BBE7A261E6
:1010E000002DC9D1C7E701F10807A761F0B1A36BD3
:1010F0009D4224D803683946DB689847206B2A460E
:10110000616B03681B69984710B90D2384F8403060
:10111000616BE76326B133462A462046FFF760FC41
:10112000D4E9053201332A446361A5E7E16A394411
:10113000F0E7074BB121074A074825F011F90920CC
:10114000064B074A9F2184F84000034825F008F920
:101150005C780290DC780290B47702900478029078
:101160001878029010B5002204460E4B012011465B
:10117000E263236084F84020C4E90522C4E9072221
:10118000C4E90922C4E90B22C4E90D22C4E90322FF
:10119000C4E901220BF0E6FE034B024620461A602A
:1011A00010BD00BF007A0290CC5B00242DE9F04F07
:1011B0000021066B83B00546816180F84010002E47
:1011C00000F0B481836B472B40F265823368304670
:1011D000DB689847286B4822696B03681B6998474E
:1011E000002800F0CE8000232E6BAF69B146EB6380
:1011F000002E00F09C81D5F834A00422C3490AEBEC
:10120000070B584625F08CFB002840F04D8207F173
:1012100008000422BE49A861504425F081FB002843
:1012200040F05D8207F10C080422BA490AEB08007D
:10123000C5F8188025F074FB0190002840F0458225
:101240009BF812409BF8112024049BF8133044EAC9
:1012500002249BF81020144354EA036400F02E8209
:1012600007F114000422AC49504425F059FB002832
:1012700000F08B800623DDF804B007F1180085F834
:10128000403050440422A54925F04AFB002800F0D4
:101290008F80072385F8403044440834B9F1000FAB
:1012A00015D0AB6B0B2B40F2F681D9F800302146FC
:1012B0004846DB689847286B0C22696B03681B69FA
:1012C000984710B90D2385F840302E6BEC6395F8E4
:1012D0004090934F04F10808002E41D0EB6B04229C
:1012E000686B3946A8EB0303184425F019FB002866
:1012F0003ED0B9F1000F3ED1AB6AA34240F2B180BB
:101300000434002E46D0EA6BD5E90D13A41A0B2B3A
:1013100001EB0402095D947850784FEA0444D278D6
:1013200044EA002444EA010444EA0264444440F2EA
:10133000B281336821463046DB689847286B0C221F
:10134000696B03681B69984710B90D2385F8403015
:101350002E6B04F1080895F84090EC63002EBDD187
:10136000E86A04223946404425F0DAFA0028C0D160
:10137000B9F1000F75D00A2385F8403003B0BDE8FD
:10138000F08F0D2385F840302DE707F118004FF05E
:10139000010B76E7EB6A1A191B5D51789478D278C5
:1013A000240443EA026344EA01241C43444491E7D1
:1013B000BBF1000F3FF470AF07F12001B9F1000F4E
:1013C00000F02581EB6B6A6BC91AC3F13000DFF8BE
:1013D00058C112F801A002EB010EC3F14001C3F1A4
:1013E000440338449EF801B039441F449EF802304B
:1013F0009EF803E01B0443EA0B2343EA0A0343EA93
:101400000E63ACFB03C302EB000C9B096B609CF802
:1014100002309CF801A01B0412F800E09CF803C005
:10142000501843EA0A2343EA0E0343EA0C63AB6015
:10143000837890F801C01B04515C43EA0C230B43F2
:10144000C17843EA0163D119EB608B7848781B04BB
:10145000D25D43EA00231343CA7843EA02632B6157
:101460001AE704F10C030434AB61002E00F0B480E1
:10147000EB6BE41AD5E90D1204F1020C671C11F8AC
:1014800004E0E01C11F80C30032A11F807904FEA31
:10149000034343EA092343EA0E0311F800E043EA59
:1014A0000E6343446B6211F80C3011F807C00F5DF6
:1014B0004FEA0344095C44EA0C2444EA070444EA82
:1014C0000164444440F2E780336821463046DB68DB
:1014D0009847286B0422696B03681B6998470028AA
:1014E0006AD02B6BEC63002B00F00381686B042245
:1014F0000C4925F015FA002868D10122AB69EC618E
:101500006A612B6203B0BDE8F08F00BF38790290AA
:10151000F0790290E8790290E0790290C87902901F
:10152000D0790290D8790290D34D62103746D5F821
:101530002C900422704909EB070025F0F1F90028EE
:1015400040F0B28007F1080004226C49A8614844C9
:1015500025F0E6F9002840F0C28007F10C080422CB
:10156000674909EB0800C5F8188025F0D9F98346CA
:10157000002840F0AA8007F1100309EB030219F8D4
:10158000033051789478D278240443EA026344EA21
:1015900001241C4300F0928007F1140004225949F1
:1015A000484425F0BDF958B907F118004FF0010B78
:1015B00048444FF0000965E60D2385F8403090E778
:1015C000062307F1180085F84030F1E70B2385F872
:1015D000403003B0BDE8F08FE86A0219015D56782B
:1015E00093781B0443EA0623D67841EA06610B434D
:1015F00043446B62035D51789478D278240443EAC3
:10160000026344EA01241C43444420446FE7EA6A2D
:1016100007F1300E07F1400C4437501812F801B0B2
:1016200002EB0E0190F801A08378C0781B044BEA0E
:10163000006043EA0A2303433348A0FB03039B09EA
:101640006B6012F80E0091F801E08B78C9781B04EA
:1016500040EA016143EA0E2302EB0C0E0B43D11961
:10166000AB6012F80C009EF801C09EF802309EF8A4
:1016700003E01B0440EA0E6043EA0C230343EB60E3
:10168000D25D48788B78C9781B0442EA016243EA4C
:1016900000231343E3E609201C4B1D4A9F2185F8D4
:1016A00040001C4824F05CFE03201B4B1B4A40F208
:1016B0002D1185F84000174824F052FE184B4FF4C6
:1016C000A171164A134824F04BFE0520154B134A0E
:1016D0004FF49E7185F840000E4824F041FE04202E
:1016E000114B0E4A40F2351185F84000094824F0AC
:1016F00037FEE86A2044FAE638790290F0790290E1
:10170000E8790290E0790290D34D6210047802905B
:1017100018780290B4770290407902905C79029038
:10172000BC790290A47902908C79029010B40024C4
:10173000C0E90A2104635DF8044BFFF737BD00BF21
:1017400010B50B680446002208469B68C4E90B21CB
:10175000984703462046A362BDE81040FFF726BD28
:101760004B68012B15D0022B0BD04BB9CB68580717
:1017700024D18B685A0703D023F0070308338B600A
:101780007047CB681A07F4D023F00F031033CB60F7
:10179000EFE7CB681A0703D023F00F031033CB60B9
:1017A0008A68100703D022F00F0210328A601B09EA
:1017B0000549120902FB03F30B60704723F007038E
:1017C0000833CB60D5E700BFA45B002410B40C4CF9
:1017D0000C4A236812680B449342236002D35DF8DD
:1017E000044B7047D21A084B1C68B2F5504F214485
:1017F00028BF4FF450425DF8044B196007F0F6BF64
:10180000B85B0024C45B0024C05B0024F8B5224C04
:101810000646224D2368206821491B0105EB001074
:10182000204FD1F800C082602068FA6805EB0010F4
:10183000C0F80CC0086810440860216801312160BC
:101840000121E95423688B4201D9002323602368D6
:101850001B01EB5C83B9236802EB4202304605EBC7
:101860000315D201696807F0C5FF0F4B1B681A7A90
:101870000AB99B7A4BB1F8BD0221304607F07EFFD2
:101880000A4B0121FA681960E5E7094B1868BDE8C1
:10189000F8400BF0EBBB00BFC85B0024080000243D
:1018A0008C010024905B0024A85B0024BC5B002416
:1018B000CC5B002472B6FEE7014B01221A60704730
:1018C000B45B002470B51C490223C5681B4C0A6830
:1018D00063632B011A4EB3FBF2FC02FB1C324B6814
:1018E000366803FB0CFCCB68A6EB030E0E694FEACF
:1018F0000C1C754506FB02F218D38968C1F1100172
:1019000041EA035161640F49C3F11E03406800249A
:1019100009681B011144094A6144D16313640A49EF
:101920000A4B1461D161D060136070BD190541F09C
:1019300010016164E7E700BF905B002400100052D3
:10194000A45B0024AC5B00240B0009FF0102010032
:101950000C4B002101701A68816001321A601A680C
:10196000012A00D91960084B08491B68C968C26878
:101970005B1A9A4202D3064B01221A60054B186883
:101980000BF074BB88010024A45B0024905B00244E
:1019900084010024CC5B00240121002208B5084604
:1019A0000BF0E0FA0B4B186040B10022042101203B
:1019B0000BF092FB084B186030B108BD074B282193
:1019C000074A084824F0CCFC074B2C21044A054860
:1019D00024F0C6FCD45B0024D05B00243C7A029047
:1019E000887A0290B87A0290007B0290024B4FF006
:1019F000FF3118680BF006BBD45B0024014B18685C
:101A00000BF034BBD45B0024024B002118680BF0B0
:101A1000F9BA00BFD45B0024014B18680BF026BB59
:101A2000D45B00240348002303491A4600680BF0E6
:101A300091BB00BFD05B00242800002410B5002318
:101A400082B0074C1A4601A920680BF0C5FB4FF085
:101A5000FF33002201A920680BF0BEFB02B010BDCD
:101A6000D05B002403685B6C184700BF01207047FF
:101A700005494FF08062054B0160C3F88820BFF331
:101A80004F8FBFF36F8F7047A07C029000E100E0A2
:101A90000F4B82B00F49D3F8D4200F4842F0100208
:101AA0000862C3F8D420D3F8D42002F010020192C7
:101AB000019ADA6F42F01002DA67DA6F22F0100250
:101AC000DA67064B4FF080629A6002B0704700BF41
:101AD00000440258E0910024C11E009000E100E0A3
:101AE00040F2EF30704700BF09494FF08062094B68
:101AF00010B501600446C3F88820BFF34F8FBFF3D1
:101B00006F8F40F6A85124F0FCFB204610BD00BFAB
:101B1000A07C029000E100E010B504464FF0FF31D8
:101B2000D0F8A40D0BF0D8F9606803681B689847DB
:101B300078B9637A6BB1237A0BBB2268204684F8AC
:101B4000A03D536A9847D4F8A40DBDE810400BF0AF
:101B5000E7B90F490F4A0B681B01D35C012BF2D187
:101B6000207A0028EFD1A07A0028ECD1086884F808
:101B7000A03D02EB00102372FFF7A4FEE3E7044B45
:101B8000D4F8A40D1B68BDE810400BF0C9B900BF24
:101B9000880100240800002490F8A03D10B50446F8
:101BA00053B903689B6A98471C491D4A0B681B017F
:101BB000D35C012B14D010BD037A2BBB6068036883
:101BC0001B68984703460028F5D1627A002AF2D0B4
:101BD0002268204684F8A03D536ABDE810401847AB
:101BE000104800680028E6D1207A0028E3D1A07AC6
:101BF0000028E0D1086884F8A03D237202EB0010B1
:101C0000BDE81040FFF75EBE04490022044B08689F
:101C1000227203EB0010FFF79BFECFE78801002440
:101C2000080000248401002438B58B7F0A2B3ED89D
:101C3000DFE803F03B062A3D3D3D3D060606060073
:101C40000124B1F814C0C88A4A8B1C4B40EA0C40EE
:101C5000A2EB0C025C6358640869D8631A640D68CF
:101C6000082D13D00022DC61154C1A61C9680A0ADC
:101C70004809C1F3C40102F4784200F4FC60024355
:101C80000A439A631C6038BD0024DAE79A611A613E
:101C90005C620C4A0C7F42EA04620B4CDA61CA684F
:101CA0001A625861D8601C6038BD0224C9E7074B2E
:101CB0008721074A074824F053FB00BF0010005259
:101CC000010203000900010001020200447B0290AE
:101CD000607B0290AC7B0290F8B591F81DE0BEF1FC
:101CE0000B0F00F2C180DFE81EF0630065004C00BE
:101CF000BF00BF00BF00BF000C000C000C000C00B8
:101D00000C00052591F81EC0BCF10B0F00F2AC8051
:101D1000DFE80CF0524B0EAAAAAAAA06060606068F
:101D2000ACF10703032B00F2A5800526012701E093
:101D3000002637468B8A4A8B0C8BC88AD21AE41A43
:101D400040EA0340524B1A649A611C614A685F631F
:101D500058640869D863DA600A68802A3BD012D8D0
:101D6000202A2CD0402A2AD0042A69D10A7F494946
:101D700045EA026242F40032DA615E62586119603B
:101D8000F8BD0025BEE7B2F5807F67D0B2F5007FD1
:101D900056D10C7F404A42EA0462DA613D4AC96882
:101DA00019625E6258611A60F8BD01263746C1E7C4
:101DB0000225A7E70125A5E702263746BAE70B7FEC
:101DC000334A45EA036343F40033D361314B56622F
:101DD00050611360F8BD8A68141DDC620C7F1178B5
:101DE00045EA046545F40035DD615E625861B1B9CC
:101DF00051880124D869294A0139024042EA012266
:101E0000DA61234AD36943F02003D361D3699B0687
:101E1000FCD41023936024B31E4B1360F8BD01293A
:101E20002ED15188FF3CD8691C4A01F1FF3118BFFF
:101E30000124024042EA012242F01002DA61E0E7A6
:101E40000A7FE645124B45EA026514BF144A40F288
:101E5000012245F40035DD611A60F8BD0C7F114A9E
:101E600099E70F4B1360F8BD0F4B66210F4A1048DE
:101E700024F076FA0C4B87210E4A0D4824F070FAB4
:101E80000D4B40F211110D4A094824F069FA00BFC8
:101E9000001000520102020009000200EF00FFFFE3
:101EA000010201000A000200447B0290F07B0290D4
:101EB000AC7B0290607B02903C7C0290587C02904C
:101EC000254B26491B6810B55C6823685A698A420D
:101ED00020D194F8A02D92B1237A002B32D16068E2
:101EE00003681B689847034698B9627A8AB12268EA
:101EF000204684F8A03D536ABDE8104018479B6A0D
:101F0000204698471649174A0B681B01D35C012BE2
:101F100004D010BD2046BDE81040104712480068AC
:101F20000028F6D1207A0028F3D1A07A0028F0D139
:101F3000086884F8A03D237202EB0010BDE8104051
:101F4000FFF7C0BC06490022064B0868227203EB6B
:101F50000010FFF7FDFCC2E76C350224991B0090CE
:101F600088010024080000248401002470B5104B6F
:101F70000646044600250C3060223572757270608A
:101F800044F8203B21460FF06BF9214606F55A63D1
:101F9000CD6024318B42FBD186F8A05D0020C6F8CD
:101FA000A45D0AF059FF03463046C6F8A43D70BD53
:101FB000A07C0290034A1368DB07FCD423239360C0
:101FC000704700BF0010005230B4114C2568ED0777
:101FD000FCD423250904FF2BA56041F001014FF03B
:101FE000020565636164E0630BD00A49656241EAFA
:101FF00003630949E36122626061E060216030BCF3
:102000007047E561029A054BA263236030BC7047BC
:10201000001000520900010001000200010003004D
:10202000012070474020704700EB81100830704756
:1020300000EB8110083070470120704742F2984051
:10204000704700BF42F2984303FB0100083070471D
:1020500042F2984303FB01000830704701207047AB
:102060001C207047C1EBC10100EB810008307047B4
:10207000C1EBC10100EB810008307047084602F057
:102080002FB900BF034B10B5044603600DF035FFB8
:10209000204610BD587D0290054B10B504460360E4
:1020A0000DF02BFF4821204624F02BF9204610BDCF
:1020B000587D0290034B10B5044603600DF01DFFE0
:1020C000204610BD247D0290064B10B504460360E7
:1020D0000DF013FF42F2A041204624F012F92046F1
:1020E00010BD00BF247D0290034B10B50446036071
:1020F0000DF003FF204610BDF07C0290054B10B59B
:10210000044603600DF0F9FE2421204624F0F9F87E
:10211000204610BDF07C029010B504460C490D4AD3
:1021200042F2D84004F5005321602044C3F8D8247B
:102130000DF0E3FE2046084B40F8383F0DF0DDFE81
:102140002046064B40F8143F0DF0D7FE204610BD48
:102150008C7D0290587D0290247D0290F07C02904C
:1021600010B50C4C0C4A04F500530C490C48C3F84C
:10217000D82421600DF0C1FE20460A4B40F8383FBC
:102180000DF0BBFE2046084BBDE8104040F8143F60
:102190000DF0B3BEDC5B0024587D02908C7D029074
:1021A000B4800024247D0290F07C029010B5044697
:1021B0000F4A104942F2D84004F5005321602044F0
:1021C000C3F8D8240DF099FE20460B4B40F8383F59
:1021D0000DF093FE094B204640F8143F0DF08DFEA4
:1021E00020464FF41A5124F08CF8204610BD00BF51
:1021F000587D02908C7D0290247D0290F07C0290AC
:102200002DE9F04182B0002401F0FAFA054601F010
:10221000FBFA2346014622462846009416F050F861
:10222000294B2A4A20462A4C1A6002F029FA2948EA
:1022300015F0AEFF2368BFF35B8FDB0705D526489B
:1022400002B0BDE8F041FEF743BB204624F05BF846
:102250000028F4D0214D224F224B05F1140007F144
:102260004C0605F138082B60EF6068602E61C5F8F8
:1022700008800DF043FE1C4B40466B610DF03EFEA6
:102280001A4B3846AB630DF039FE05F50053184A7A
:1022900003F5A460C3F8D82403F0F2FA2A4607F144
:1022A0004801304603F0D6FA304602F019F81148DA
:1022B00024F074F8204624F032F8074802B0BDE854
:1022C000F041FEF705BB00BFD035022490900024FA
:1022D000D85B00242C00002408900024DC5B002440
:1022E000B48000248C7D0290F07C0290247D0290CA
:1022F000587D029061210090704700BF0148FEF7B1
:10230000ADBA00BF0890002470B5254B254C264E71
:10231000264D23603046FFF729FE28461AF0A8FA1A
:10232000234B00224FF4F0704FF48871DA621A8662
:102330005A6583F858205A66DA6683F87020C3E934
:1023400003421C4C9C661C4C23601C4C20801C4C83
:1023500020801C4C1C48218001801C4C1C491D48BD
:10236000C3E901654FF48075C3E905229D64C3E9A3
:102370000722C3E90922C3E90E22C3E91022C3E9F7
:102380001322C3E91722227019601349C3F8802071
:1023900083F83420C3F88420D967C3E91D2070BDB9
:1023A000F47402905C8200246082002494900024E3
:1023B00008900024010000016C35022460350224DD
:1023C000663502246235022468350224643502240D
:1023D0008476029000000101CC7402900148FFF75E
:1023E00047BB00BF6082002490F8252012B103682B
:1023F0005B691847704700BF0020704781807047B5
:10240000C18070470181704741817047704700BFAC
:10241000704700BF704700BF704700BF704700BFE4
:10242000B0F806C00368A2EB0C02B0F804C05B6D04
:10243000A1EB0C0112B209B2184700BF13684FF6A6
:10244000FF7C4FF0FF31A0F80CC0C0E907311060ED
:10245000704700BF90F825201AB190F8242002B1EF
:10246000186070470020704703468A8801209A80D0
:10247000704700BF704700BF80F82610704700BF4C
:1024800090F82600704700BF4FF0000C8A68C0F833
:1024900000C04260704700BF002202604260704787
:1024A00000207047034B902283F85A2383F8582367
:1024B000704700BF00E100E0094A0A49D3680A48B2
:1024C000C3F30A03013B9BB20B801169C1F30A01FC
:1024D000013901801364536B43F001035363704768
:1024E000001000506691002464910024014BD3F841
:1024F000AC00704700100050024B0122C3F8AC1032
:102500005A62704700100050C0E90C128163704796
:10251000704700BF00EB8100114640680368DB682C
:10252000184700BF80F83C10704700BF10B5044644
:10253000482123F0E6FE204610BD00BF11B990F8F7
:102540002900704708B5034A4FF4B871024B03489D
:1025500023F006FFAC7D0290987D0290387F0290B8
:1025600021B94068114603681B6B1847034B4FF4B1
:10257000B571034A034810B523F0F2FE987D02902E
:102580007C7F0290387F029009B9C068704708B517
:10259000024A7921024B034823F0E2FE2C8102908B
:1025A000987D0290387F029010B50C4649B91146CB
:1025B0001A464368C4601C681846A368BDE810400A
:1025C0001847034B9021034A034823F0C9FE00BF7C
:1025D000987D0290E0820290387F029021B9C0E994
:1025E0000411C0E90632704708B5034A8221034B43
:1025F000034823F0B5FE00BFBC840290987D029092
:10260000387F02900DF05CBF90F83D3003B9704701
:1026100010B54FF0FF310446406C0AF05DFC4FF4FA
:102620008073A4F83D3010BD38B50C4605464FF018
:10263000FF31406C04EBC4040AF04EFC686C0AF0F5
:102640006FFC002305EB840484F8283095F82830CB
:102650000BB92B6BAB6338BD70B51C4C05460DF048
:102660003BFF94F829308BB994F82A3073B90123D1
:10267000206C84F83D300AF0F9FC94F83E30F3B950
:1026800068680368BDE870401B691847D4E90530E5
:10269000E169226900FB03F301FB02F29342E6D3F6
:1026A00094F83C0038B19B1AB3FBF1F2994298BF01
:1026B00002F1FF326262012384F82E30D7E7606CAA
:1026C0000AF02EFC002384F83E30D9E71C91002448
:1026D0000DF0C0BE0EF021B814484369D90323D5CC
:1026E000002310B5C0F88430BFF34F8FD0F880308E
:1026F00043F6E074C3F34E3CC3F3C90E4FEA4C1CDF
:102700000CEA0401734641EA8372013BC0F874226B
:102710005A1CF8D1ACF1200C1CF1200FF0D1BFF302
:102720004F8FBFF36F8F10BD704700BF00ED00E00B
:1027300010B5002933D10446052A09D8DFE802F094
:102740000F1E222703090022012380F8292003629B
:1027500010BD003B18BF012380F82D3010BD40682C
:1027600003681B6998470028F2D00122002384F8EF
:10277000292084F82C20C4E9043310BD002380F8FC
:10278000293010BD00220362C0E9042210BD0022DE
:102790000121036280F82A10C0E9042210BD034B16
:1027A000A221034A034823F0DBFD00BF987D02907D
:1027B00078860290387F029010B539BB90F82930A6
:1027C000044623B994F82B3063B9012010BD124997
:1027D0004369096891F86B100B44436194F82B30FE
:1027E000002BF2D0A168104613685B69116398470B
:1027F000002394F82C0084F82B300028E5D194F8BD
:102800002D30002BE2D184F8290010BD034BD021DC
:10281000034A044823F0A4FD6C350224987D0290FD
:102820004C880290387F029090F8283070B5FBB940
:102830000122856BC360A0F82D2005F5872480F860
:102840002820036143618361C36103624362C0F86E
:102850002930D0E90C263244944210D80B4A8560C6
:102860008463184681F83430C1F836200B6370BD9C
:10287000074B40F2C511074A074823F071FD074B8B
:102880005221074A044823F06BFD00BFE0012001FC
:10289000EC8902901C8A0290387F0290A48B0290EF
:1028A000E08B0290084B4FF08062C3F88820BFF3A2
:1028B0004F8FBFF36F8F4FF08072C3F88820BFF344
:1028C0004F8FBFF36F8F704700E100E0034B4FF075
:1028D00080629A604FF080729A60704700E100E079
:1028E00038B504460DF005FE23685D6E12F0BCFBA2
:1028F00001462046A8472368164AD3F888509542D7
:102900001CD1154A0125D3F88C3002F57F311348CC
:10291000C4E90F21124A0570934216D10023114ACF
:102920006364137064684FF487200F4B0F49104A9B
:102930004C6459601A63C3E90D0238BD0D4A002387
:102940002046A2F57F31A847ECE7002120469847B2
:10295000E8E700BF0508009000FC03D06A350224B8
:10296000750600906B3502241C91002468910024A8
:1029700000F40BD000F807D010B5144C236823B333
:10298000134B144A1B6C11888B420AD007F050FF7E
:10299000206803681B6A98470020BDE81040FDF7D7
:1029A0000DBE0D4B198807F043FF226892F86A307C
:1029B000013382F86A30FFF735F820680EF0F2FA3A
:1029C0000020BDE81040FDF7C5BD10BD6C350224E8
:1029D0000010005066910024649100242DE9F0431A
:1029E000DFF8B88083B001264FF47077044624E006
:1029F0002B6828465B6A98470023236229684FF4B6
:102A0000907300974FF4F072D1F814902846A168A3
:102A1000C847236984F82C0001332361002833D090
:102A20002B689B6A434531D1686901380022E06018
:102A300084F82E20606C0AF073FA4FF0FF31206C9E
:102A40000AF0E0FA4FF0FF31606C0AF045FA94F8B2
:102A50002E30002BEED0216A656884F82B600029A7
:102A6000C6D1636A002BC9D02A68D2E909914145D1
:102A70000FD16869C1182846C8472369616A0022D6
:102A80000B4462622361B9E70120CFE728469847EB
:102A9000CBE728468847636AECE700BF7D090090D2
:102AA000014808B5FFF79AFF1C91002438B5154876
:102AB0000025FEF757FB144C14494FF480732A4647
:102AC000012021602946A385A387E560A56284F8DB
:102AD0002E50A56384F83E50C4E90455C4E9065558
:102AE000C4E90855C4E90C55C4E91055C4E90155B9
:102AF0000AF038FA0346284623640AF0ADF9606408
:102B000038BD00BF689100241C910024AC8D029058
:102B1000014900200CF0C6BC590900900E4B0F4C27
:102B2000186800B583B00AF069F9019001224FF4EA
:102B30000051204605F0B0FC4FF47A700AF07EF99F
:102B4000204600224FF4005105F0A6FC4FF47A70A5
:102B50000AF074F9EAE700BFB4910024002002589B
:102B6000114D124E124C08B506E020680AF0AAFA80
:102B700090B164200AF062F928680AF0A3FA0028EC
:102B8000F3D128680AF072FA30680AF037F9206841
:102B90000AF098FA0028ECD120680AF067FA306849
:102BA0000AF03CF9E5E700BF58940024B4910024F2
:102BB0005494002470B59EB04C2200210AA823F042
:102BC000A7FE2022002102A823F0A2FE022008F086
:102BD0006DF8224B0021224A0191D96A21F00101AE
:102BE000D962DB6A03F001030193936943F4404324
:102BF0009361936903F440430193019B93699904A2
:102C0000FCD501224FF480330224082600250AA8AF
:102C10001794CDE90A230522A023CDE91523042327
:102C2000CDE913441893CDE91946CDE91B5508F0B9
:102C3000E5F840233F22214607930DEB0600029260
:102C40000322099304950392CDE905634FF4806351
:102C5000089308F067FC1EB070BD00BF0004005868
:102C60000048025880B5002498B001251B27032690
:102C7000CDE90B44CDE90D4405F000F84FF01053B9
:102C8000D4490BA80C93D44BADF82C50CDE90D13BF
:102C900005F012F84FF010430BA88DF837400C9355
:102CA000ADF83A408DF82D508DF8347005F004F8E9
:102CB00002230BA8ADF837608DF82D301A238DF85C
:102CC000343040F20113ADF83A3004F0F5FF4FF420
:102CD00080730BA8ADF83A400424ADF837304FF0BC
:102CE00050438DF834700C938DF82D6004F0E4FFA0
:102CF00018230BA88DF837608DF834308DF82D40EF
:102D00008DF83A5004F0D8FF204604F0C5FFB34ACE
:102D1000536913F4003311D1BFF34F8FBFF36F8F9B
:102D2000C2F85032BFF34F8FBFF36F8F536943F434
:102D300000335361BFF34F8FBFF36F8FA7484369D1
:102D400013F4803324D1C0F88430BFF34F8FD0F810
:102D5000805043F6E076C5F34E34C5F3C9056401EF
:102D600004EA06012B4641EA8372013BC0F8602267
:102D70005A1CF8D1203C14F1200FF1D1BFF34F8F32
:102D8000436943F480334361BFF34F8FBFF36F8FC9
:102D900004F0BCFEFFF70EFF62B60024904DC02188
:102DA00090480F94224601264FF0030908274FF060
:102DB00004084FF0050ACDE90B44CDE90D44D5F8E0
:102DC000E03043F48063C5F8E030D5F8E03003F438
:102DD00080630193019BD5F8E03043F04003C5F8D0
:102DE000E030D5F8E03003F040030293029BD5F8C1
:102DF000E03043F48073C5F8E030D5F8E03003F4F8
:102E000080730393039BD5F8E03043F01003C5F8BB
:102E1000E030D5F8E03003F010030493049BD5F8BC
:102E2000E03043F00203C5F8E030D5F8E03003F0BD
:102E300002030593059BD5F8E03043F40073C5F811
:102E4000E030D5F8E03003F400730693069BD5F824
:102E5000E03043F00803C5F8E030D5F8E03003F087
:102E600008030793079BD5F8E03043F02003C5F82B
:102E7000E030D5F8E03003F020030893089BD5F844
:102E8000E03043F08003C5F8E030D5F8E03003F0DF
:102E900080030993099BD5F8E03043F00103C5F89E
:102EA000E030D5F8E03003F001030A930A9B05F007
:102EB000F3FA224680214C4805F0EEFA4FF4005117
:102EC0004A48012205F0E8FA22460821484805F060
:102ED000E3FA01224748114605F0DEFA2246442172
:102EE000454805F0D9FAC0230BA93E48CDE90B3679
:102EF000CDE90D4905F0D0F880230BA93A480B9392
:102F00000E94CDE90C6405F0C7F84FF400530BA9FB
:102F100036480B930E94CDE90C6405F0BDF80BA96F
:102F20003348CDF838900B97CDE90C6405F0B4F830
:102F30000BA93048CDE90B66CDE90D4405F0ACF89E
:102F40000BA92D48CDE90B86CDE90D4405F0A4F879
:102F5000CDF838904FF040090BA92748CDF82C90B8
:102F6000CDE90C6405F098F8D5F8D4302246052157
:102F700033437A20C5F8D430D5F8D4301F4D3340D0
:102F80000093009B04F01CFE7A2004F057FE3422CC
:102F900021460BA823F0BCFC194B2A20AF612B6003
:102FA000272340F20A274FF4047C6B610B23AC8685
:102FB00085F83640C5E9070340F21B132846C5E9EA
:102FC000097340F21D130227C5E90BC3C5E901448B
:102FD00018E000BF120000030100010100ED00E055
:102FE0000044025800040258000C02580020025805
:102FF000001802580028025800000258A09200242D
:1030000000100050C5E9034407F06CFA4FF4F07368
:1030100022460BA90C93284615934FF488734C4D08
:103020000E931693FF230B9410934FF480630D942B
:10303000129311941494ADF85C408DF85E400F9794
:10304000CDF84CA007F022FB424B2846EC652B60E4
:10305000EC60C5E91147C5E91344C5E91544C5E964
:10306000014704F0D1FE3146284604F0A5FF3A4856
:103070004FF4C0730BA9CDF83CA00B97CDF834806A
:10308000C0F80C80C0F814908462C0E906344FF494
:10309000006303624FF48053436207230C930E9343
:1030A0002E4B03601023CDE910770361C0E9016462
:1030B00009F010FB204604F0BBFA204604F002FBA6
:1030C000FDF788F9264B2748036006F0DFF926480C
:1030D000264B848003600662C0E9054404F01EFEAE
:1030E000FDF77CF9FDF778F909F012FE204A214638
:1030F000304609F037FF1F4B01461F4A3046196022
:10310000214609F02FFF1D4B1D4A214618601D481E
:1031100009F02AFE1C4B1D4A214618601C4809F084
:1031200023FE1C4B1C4A214618601C4809F01CFE5B
:103130001B4B05461B4A21461B481D6009F014FE27
:103140001A4B186009F05AFE0B9009F0F3FDFEE7E8
:10315000E0910024001000522094002440410052CD
:103160000030005248920024BC910024004C0258C8
:10317000C48E029054940024D48E0290589400245B
:10318000A08E0290612B0090B8910024588E02907E
:10319000ED030090B0910024E48E0290A12A0090EB
:1031A0005C9400247C8E02901D2B0090B49100242E
:1031B000034B02689A4200D0704704F0D7BC00BFAE
:1031C00000100040704700BF0B4B00220F216FF032
:1031D000010010B4D3F8F44083B044F00204C3F803
:1031E000F440D3F8F43003F002030193019B03B0E1
:1031F0005DF8044B04F0E4BC004402580A4B02683A
:103200009A4200D07047A3F5006382B0D3F8E02063
:1032100042F40022C3F8E020D3F8E03003F40023A6
:103220000193019B02B07047004C02580F4B02689B
:103230009A4200D070470E4B5A200022052110B54B
:10324000D3F8D44082B044F01004C3F8D440D3F88B
:10325000D43003F010030193019B04F0B1FC5A2019
:1032600002B0BDE8104004F0E9BC00BF00100052FD
:10327000004402583F4B02689A4200D0704770B534
:103280003D4B11223D4E82B03D4D044672603046AA
:10329000D3F8D4203B4942F02002C3F8D420802246
:1032A000D3F8D430326203F020033160019300235D
:1032B00001993361C6E902324FF000727262202236
:1032C000C6E90633C6E90D33B2624FF400334FF45A
:1032D000A042C6E90B2313236B600223736107F03E
:1032E000C9FA00283AD100222448114607F060FBB1
:1032F00000283CD12022002326631320EA61AA6221
:103300004FF420322049AB602B62AB633464C5E9D3
:103310000C23C5E904330823C022C5E90010AB61C2
:103320004FF4A0414FF000731548E962EA606B6208
:1033300007F0A0FAC0B900221148114607F038FB87
:1033400078B965637920002205212C6404F038FCEB
:10335000792002B0BDE8704004F070BCFFF732FF86
:10336000C1E7FFF72FFFECE7FFF72CFFE3E7FFF7DD
:1033700029FFBFE700300052004402584893002460
:10338000B493002400020052C001005270B5BAB0DC
:1033900000210446C0220AA80991CDE90511CDE912
:1033A000071123F0B5FA4A4B22689A4201D03AB08D
:1033B00070BD022305224FF000540025A021169372
:1033C0001492532217934FF400630AA81591CDE984
:1033D0000A45CDE9182308F07DFB002874D13D4B48
:1033E000022400250E26D3F8E42005A93A4842F02D
:1033F0000802C3F8E420D3F8E42002F008020092A7
:10340000009AD3F8E02042F48062C3F8E020D3F8B9
:10341000E02002F480620192019AD3F8E02042F4A5
:103420008072C3F8E020D3F8E02002F480720292A8
:10343000029AD3F8E02042F40072C3F8E020D3F8F7
:10344000E02002F400720392039AD3F8E02042F0E5
:103450008002C3F8E020D3F8E030089403F0800342
:1034600009960493FC23049A0593CDE9064504F0DC
:1034700013FE4DF2032305A918480593CDE906452F
:10348000CDE9084604F008FE4FF6FB7305A9144881
:103490000593CDE90645CDE9084604F0FDFD4FF45E
:1034A000007305A90F480996CDE90534CDE9075405
:1034B00004F0F2FD2A460521582004F081FB582033
:1034C00004F0BCFB3AB070BDFFF77CFE87E700BF9D
:1034D00000100050004402580028025800200258F2
:1034E00000240258001C025836480023D0B5016859
:1034F000B8B0CDE90233CDE90433069309B138B051
:10350000D0BD0123B82203600AA823F001FA4FF0CE
:103510008072002308A8CDE9082308F0DBFA002810
:103520004CD1294B4FF6837002210C24D3F8D420C0
:103530000026032742F48052C3F8D420D3F8D430B5
:10354000069403F48053CDE90201019302A91F48B8
:10355000019BCDE9046704F09FFD48F2331202237A
:1035600002A91B480694CDE90223CDE9046704F0C3
:1035700093FD4CF20372022302A916480694CDE98A
:103580000223CDE9046704F087FD4FF63F020223D2
:1035900002A911480694CDE90223CDE9046704F09D
:1035A0007BFDE022022302A90C480694CDE90467C2
:1035B000CDE9022304F070FD38B0D0BDFFF702FE64
:1035C000AFE700BF64940024004402580010025882
:1035D00000180258000C025800140258001C02582F
:1035E000134B1A6802B1704710B5124A01244FF606
:1035F000837111481C60D2F8D43023F48053C2F890
:10360000D43004F07BFE48F233110C4804F076FE0F
:103610004CF203710A4804F071FE4FF63F0109486D
:1036200004F06CFEE0210848BDE8104004F066BEDE
:1036300060940024004402580010025800180258F8
:10364000000C025800140258001C02580F2801D91F
:103650000120704730B501468BB000220446362069
:1036600004F0AEFA362004F0E9FA1A4B1A4A694619
:1036700002A81460D3F8E82042F01002C3F8E82052
:10368000D3F8E83003F010030193019B08F002F92E
:10369000079BBBB908F06EF8104B0022104CA3FB3F
:1036A0000013104D40F2E73120469B0C2560A260CC
:1036B000013BC4E90312636009F07EF830B10120D8
:1036C0000BB030BD08F056F84000E5E7204609F0A1
:1036D00029F9F5E7004402586C00002483DE1B43FF
:1036E0006894002400100040704700BFFEE700BF50
:1036F000FEE700BFFEE700BFFEE700BF704700BF68
:10370000014809F073B900BF68940024014806F02D
:103710005BBF00BFA0920024014804F0B9BB00BF0A
:10372000E0910024014806F03BBE00BF489200240F
:10373000044808B507F0FCF90348BDE8084007F065
:10374000F7B900BFB49300244893002401207047C8
:1037500008B523F091F9162203464FF0FF301A60A6
:1037600008BD00BF08B523F087F916230360FEE704
:1037700070B5161E07DD0C468D19AFF3008004F8F6
:10378000010BA542F9D1304670BD00BF70B5161EC1
:1037900007DD0C468D1914F8010BAFF30080AC4225
:1037A000F9D1304670BD00BF4FF0FF30704700BF09
:1037B0004FF4005300204B60704700BF012070475A
:1037C00000207047704700BF10B50446042122F066
:1037D00098FD204610BD00BF012908B504D002297C
:1037E0000AD029B1002008BD00F098FF406808BD4C
:1037F00000F094FF006808BD00F090FF806808BDED
:10380000004870471C8F02900C20704769B1026815
:1038100030B583B0002495680DF1030301AA01942B
:103820008DF80340A84703B030BD0846704700BF7D
:10383000C0897047008A7047C08870478088704789
:10384000807A00F07F007047807AC009704700BF1F
:10385000002070479FED010A704700BF0000000084
:10386000704700BF10B50446082122F04AFD2046EB
:1038700010BD00BF704700BF00F598730868496825
:1038800003C37047806A7047704700BF704700BF2E
:1038900041607047704700BF0549002200F5A273E0
:1038A000C0F85021C0F84031C0E95201704700BF54
:1038B0000D3C009001230372704700BF704700BFAA
:1038C000704700BF704700BF704700BFC268034623
:1038D00041684FEA620C01EB6200D20701D49B6899
:1038E000184751F80C209B68D358184743683BB1E0
:1038F00083680BB101207047C06800F00100704779
:103900001846704710B504460C2122F0FAFC2046F8
:1039100010BD00BF10B50446102122F0F2FC204675
:1039200010BD00BF10B504464FF4AE7122F0E9FCA3
:10393000204610BD10B50446402122F0E2FC20468E
:1039400010BD00BF10B50446402122F0DAFC20462D
:1039500010BD00BF10B511F087FB0368BDE8104033
:10396000DB6B1847054B1B783BB143682BB11A68DA
:1039700000F10C011846536E184770476B3502244E
:10398000054B1B783BB143682BB11A6800F10C0161
:103990001846536E184770476B35022470B50546BC
:1039A00090F83900013095F83830C0B2984285F867
:1039B000390005D9012200232A7285F8393070BDFB
:1039C000B5F93A20002113F0CFF810F0010283B2CC
:1039D00006D04FF6FF710028D8BF0A4613449BB2A9
:1039E00068682C8A026812491B1BD269AB878A421D
:1039F0001BD1846A64B1AA8F0E4E2368A1881B6B09
:103A00001144B34209B209D1A180A469002CF4D1B8
:103A100068680368BDE870405B69184720469847AE
:103A2000A469002CF4D0AA8FE7E790470446E1E7A9
:103A300085380090FD23009070B5054690F8390058
:103A4000013095F83830C0B2984285F8390005D970
:103A5000012200232A7285F8393070BDB5F93A2069
:103A6000002113F081F810F0010283B206D04FF666
:103A7000FF710028D8BF0A4613449BB268682C8A9D
:103A8000026812491B1BD269AB878A421BD1846A28
:103A900064B1AA8F0E4E2368A1881B6B1144B342F8
:103AA00009B209D1A180A469002CF4D16868036827
:103AB000BDE870405B69184720469847A469002C10
:103AC000F4D0AA8FE7E790470446E1E785380090F5
:103AD000FD230090037A2BBB144A70B5054640685D
:103AE0000368DB6993421ED1846A64B16A8F104E09
:103AF0002368A1881B6B891AB34209B20BD1A1803C
:103B0000A469002CF4D1686805F10C010368BDE8D4
:103B100070401B6E184720469847A469002CF2D0CD
:103B20006A8FE5E7704798470446DEE785380090DE
:103B3000FD230090037A2BBB144A70B505464068FC
:103B40000368DB6993421ED1846A64B16A8F104EA8
:103B50002368A1881B6B891AB34209B20BD1A180DB
:103B6000A469002CF4D1686805F10C010368BDE874
:103B700070401B6E184720469847A469002CF2D06D
