:020000040800F2
:1000000000000220511C0008710900087309000853
:100010007509000877090008790900080000000048
:100020000000000000000000000000007B09000844
:100030007D090008000000007F0900088109000810
:10004000A11C0008A11C0008A11C0008A11C00089C
:10005000A11C0008A11C0008A11C0008A11C00088C
:10006000A11C0008A11C0008A11C0008A11C00087C
:10007000A11C0008A11C0008A11C0008A11C00086C
:10008000A11C0008A11C0008A11C0008A11C00085C
:10009000A11C0008A11C0008A11C0008A11C00084C
:1000A000A11C0008A11C0008A11C0008A11C00083C
:1000B000A11C0008A11C0008A11C0008A11C00082C
:1000C000A11C0008A11C0008A11C0008A11C00081C
:1000D000A11C0008A11C0008A11C0008A11C00080C
:1000E000A11C0008A11C000800000000A11C0008C1
:1000F000A11C0008A11C0008A11C0008A11C0008EC
:10010000A11C0008A11C0008A11C0008A11C0008DB
:10011000A11C0008A11C0008A11C0008A11C0008CB
:10012000A11C0008A11C0008A11C0008A11C0008BB
:10013000A11C0008A11C0008A11C0008A11C0008AB
:1001400000000000000000000000000000000000AF
:10015000A11C0008A11C0008A11C0008A11C00088B
:10016000A11C0008A11C0008A11C0008A11C00087B
:10017000A11C0008A11C0008A11C0008A11C00086B
:10018000A11C0008A11C0008A11C0008A11C00085B
:10019000A11C0008A11C0008A11C0008A11C00084B
:1001A000A11C0008A11C0008A11C0008A11C00083B
:1001B000A11C0008A11C0008A11C0008A11C00082B
:1001C000A11C0008A11C0008A11C0008A11C00081B
:1001D000A11C0008A11C0008A11C0008A11C00080B
:1001E000A11C0008A11C0008A11C0008A11C0008FB
:1001F000A11C0008A11C0008A11C0008A11C0008EB
:10020000A11C0008A11C0008A11C0008A11C0008DA
:10021000A11C0008A11C0008A11C0008A11C0008CA
:10022000A11C0008A11C0008A11C0008000000007F
:10023000A11C0008A11C000800000000A11C00086F
:10024000A11C0008A11C0008A11C0008A11C00089A
:10025000A11C0008A11C0008A11C0008A11C00088A
:10026000A11C0008A11C0008A11C0008A11C00087A
:10027000A11C0008A11C0008A11C0008000000002F
:10028000A11C0008A11C0008A11C0008000000001F
:1002900000000000A11C000810B5054C237833B9FC
:1002A000044B13B10448AFF300800123237010BD49
:1002B0003C04002000000000081E000808B5034BA5
:1002C0001BB103490348AFF3008008BD00000000E4
:1002D00040040020081E000880B59CB0BFF34F8F7B
:1002E000BFF36F8F684B0021C3F85012BFF34F8FDD
:1002F000BFF36F8F5A6942F400325A61BFF34F8FD8
:10030000BFF36F8FC3F88410BFF34F8FD3F88020F3
:1003100043F6E076C2F3C904C2F34E32A507520198
:1003200002EA060C284621464CEA0007013900F192
:100330004040C3F860724F1CF6D1203A12F1200FF2
:10034000EED1BFF34F8F5A6942F480325A61BFF346
:100350004F8FBFF36F8F00F079FB022000F016FD86
:1003600000230093494BDA6A22F00102DA62DB6A69
:1003700003F001030093464B9A6942F440429A61AC
:100380009A6902F440420092009A9A699404FCD55A
:100390004FF480334FF0010E0520A02102220424E7
:1003A00008251692189217941995CDE909E30023B0
:1003B000CDE9140109A80C9310931B931A93CDE96E
:1003C000122201F005F800B1FEE703234FF03F0CC5
:1003D0004FF480622146CDE901C34023CDE90305F6
:1003E00001A8CDE90533CDE9072301F00DFB00B1EC
:1003F000FEE700F0BBF900B1FEE7BFF34F8FBFF39C
:100400006F8F214B5A6922F400325A61C3F85002AF
:10041000BFF34F8FBFF36F8FC3F88400BFF34F8FCD
:100420005A6922F480325A61BFF34F8FD3F880208B
:1004300043F6E076C2F3C904C2F34E32A507520177
:1004400002EA060C284621464CEA0007013900F171
:100450004040C3F874724F1CF6D1203A12F1200FBD
:10046000EED1BFF34F8FBFF36F8F0A4B00221A609C
:10047000094B0A4A1B6813604FF01042126882F35E
:1004800008889847FEE700BF00ED00E00004005830
:100490000048025810E000E00400009058040020DA
:1004A0007B4B2DE9F04FD3F8D42091B0794D09243E
:1004B00042F480420026784F0BA9C3F8D420284686
:1004C000D3F8D4204FF040084FF00A0BDFF8D0A14A
:1004D00002F480424FF400790092009ADA6F42F4FD
:1004E0008042DA67DA6F22F48042DA67D3F8E020DC
:1004F00042F02002C3F8E020D3F8E02002F020020E
:100500000192019AD3F8E02042F00802C3F8E020FB
:10051000D3F8E02002F008020292029AD3F8E02019
:1005200042F02002C3F8E020D3F8E02002F02002DD
:100530000392039AD3F8E02042F02002C3F8E020AF
:10054000D3F8E02002F020020492049AD3F8E020CD
:1005500042F02002C3F8E020D3F8E02002F02002AD
:100560000592059AD3F8E02042F04002C3F8E0205B
:10057000D3F8E02002F040020692069AD3F8E02079
:1005800042F08002C3F8E020D3F8E02002F08002BD
:100590000792079AD3F8E02042F08002C3F8E020E7
:1005A000D3F8E02002F080020892089AD3F8E02005
:1005B00042F04002C3F8E020D3F8E02002F040020D
:1005C0000992099AD3F8E02042F04002C3F8E020F3
:1005D0004FF48062D3F8E03003F040030A930A9BA3
:1005E0000223CDE90B230323CDE90D630F9400F023
:1005F000DBFA01230BA93846CDF82C800D93CDF8FA
:100600003CB000F0D1FA4FF400630BA923480B93E0
:100610000D960F9400F0C8FA04230BA950460F94CE
:100620000B9300F0C1FA0BA92846CDF82C90CDF819
:100630003CB000F0B9FA08230BA950460F940B9375
:1006400000F0B2FA80230BA928460F940B9300F018
:10065000ABFA0BA93846CDF82C9000F0A5FA0BA9FF
:100660002846CDF82C8000F09FFA4FF480430BA968
:1006700038460B9300F098FA32460F215C2000F0C8
:100680003DFA5C2000F06CFA11B0BDE8F08F00BFBD
:10069000004402580014025800180258000C025876
:1006A000001C025800B54FF4407395B04FF04072F3
:1006B00011480C9305230F920222069300230B92FC
:1006C00006A913930093049303926A46CDE90D3370
:1006D000CDE91133102302934FF48003059340F2C8
:1006E0000113019341F2883300F0D9FD003018BFA7
:1006F000012015B05DF804FB5C04002000B54FF448
:10070000407395B041F2883217480C93062306A92E
:1007100006930023CDE90D330F930B931393CDE98B
:10072000113300F0BCFCE8B940F2022302224FF47E
:10073000800104900C48CDE900331023CDE902324A
:1007400005236A46CDE905134FF0407306A90F93C0
:1007500041F2883300F0A3FD003018BF012015B02E
:100760005DF804FB0120FAE75C0400202DE9F0436A
:100770007D4C9DB07D4B2046236000F074FC074605
:1007800008B10124ECE0FFF78BFE01250323C4E947
:1007900001351023E3604FF0006393FAA3F3B3FA3B
:1007A00083F34FF440762046E761013B2361402309
:1007B000C4E90567236200F0F7FB0028E1D14FF49C
:1007C00080774FF06609099041F2883205906946BA
:1007D0000D900697CDF80090CDE90700CDE90B000C
:1007E000204600F05CFC0028CBD14FF0990841F284
:1007F000883269462046CDF8008000F050FC002881
:10080000BFD141F28832694620460696CDF8009065
:1008100000F045FC0028B4D141F2883269462046F8
:10082000CDF8008000F03BFC0028AAD135231790BA
:10083000139041F288321B900EA914970E93CDE9C4
:100840001500CDE91900204600F029FC002898D1B8
:10085000FFF728FF002894D1B723149617900E9322
:1008600013901B90CDE91500CDE91900FFF746FF65
:10087000002886D141F288320EA9204600F00FFCF4
:1008800000287FF47EAFFFF70DFF00287FF479AFDB
:1008900085234FF440764FF04075ADF800000E937D
:1008A0000223139041F288320EA914961795CDE9D0
:1008B0001500CDE91830CDE91A002B4800F0EFFB08
:1008C00000287FF45EAF41F288326946264800F086
:1008D00085FC00287FF455AFFFF710FF0446002881
:1008E0007FF44FAF812341F288320EA91E480E9348
:1008F000BDF8003023F0F0031B051B0D43F400434B
:1009000043F08003ADF8003000F0C9FB00287FF40D
:1009100038AF41F288326946134800F003FC0028E2
:100920007FF42FAFED236A460EA90F480E934FF4C4
:1009300040631B9415934FF4405314961193052371
:10094000CDE9164513934FF000454FF08043CDE9B4
:100950000044CDE9195300F0F7FC002818BF01242A
:1009600020461DB0BDE8F0835C040020005000521A
:100970007047FEE7FEE7FEE7FEE770477047704707
:1009800000F092B81849194810B5D1F8883043F4EE
:100990007003C1F88830164B1A6842F001021A60E1
:1009A00000221A611C68204018609A61DA611A629C
:1009B0009A62DA621A635A639A63DA631A645A644F
:1009C000186820F4802018601A660A4B1B681B0CFC
:1009D0001B04B3F1005F02D2074B01221A604FF0F3
:1009E00000638B6010BD00BF00ED00E07FEDF6EA14
:1009F000004402580010005C08810051704700005C
:100A000038B50F4B0546187808B9012038BD4FF4AA
:100A10007A730C4AB3FBF0F31068B0FBF3F000F00C
:100A2000ADF804460028F0D10F2DEED80246294635
:100A30004FF0FF3000F062F8034B20461D60E5E701
:100A400008000020000000200C00002010B503204A
:100A500000F042F800F03CFF0F49104A8B69C3F3E5
:100A60000323D35C03F01F03D8400D4B18608B6940
:100A700003F00F03D35C03F01F03D840094B186049
:100A80000F20FFF7BDFF044618B9FFF7B7FF204658
:100A900010BD0124FBE700BF00440258201E0008DF
:100AA0000000002004000020034A044B11681B785A
:100AB0000B441360704700BFA8040020080000200A
:100AC000014B1868704700BFA8040020014B18684C
:100AD000000C70470010005C074A0002D36800F465
:100AE000E06023F4E0631B041B0C43F0BF6343F49A
:100AF00000330343D360704700ED00E0164B70B540
:100B0000DC684FF0FF36C4F30224C4F10705231D4F
:100B1000042D28BF0425062B06FA05F38CBF033CE1
:100B20000024002821EA030303FA04F306FA04F47C
:100B300022EA040443EA04034FEA0313DBB206DBB0
:100B400000F1604000F5614080F8003370BD00F0B6
:100B50000F00024A1354F9E700ED00E014ED00E045
:100B6000002808DB4209012300F01F0003FA00F00F
:100B7000014B43F82200704700E100E00138B0F17A
:100B8000807F0AD2064BF021064A5860002082F886
:100B90002310072298601A6070470120704700BF39
:100BA00010E000E000ED00E04FF0B04C00232DE934
:100BB000F74F724EE246DFF8D0B10A6832FA03F41A
:100BC00002D103B0BDE8F08F4FF0010E0EFA03FE24
:100BD0001EEA020200F0BD804C6824F01004022CD2
:100BE00014D14FEAD30803F007090F2500EB88085A
:100BF0004FEA8909D8F8204005FA09F524EA0505E5
:100C00000C6904FA09F42C43C8F820404FEA430861
:100C10004FF003094C6809FA08F9056804F0030469
:100C20006FEA090904FA08F409EA05052C4304608F
:100C30004D6825F01005013D012D11D88468CD685F
:100C400009EA040405FA08F525438560446824EAA6
:100C50000E0E4C68C4F300149C4044EA0E04446039
:100C6000C46809EA04098C6804FA08F444EA09042F
:100C7000C4604C68E4006CD5414D03F0030E4FF0A6
:100C80000F08D5F8F4404FEA8E0E44F00204C5F880
:100C9000F440D5F8F44023F0030505F1B04504F025
:100CA000020405F580650194019C08FA0EF4D5F85C
:100CB000089029EA0408334CA0424CD004F5806423
:100CC000A0424AD004F58064A04248D0584548D09C
:100CD00004F50064A04246D004F58064A04244D0EC
:100CE00004F58064A04242D004F58064A04240D064
:100CF00004F58064A0423ED004F58064A0420CBF9D
:100D000009240A2404FA0EF444EA0804AC60D5432A
:100D10004F683468FF034CBF14432C4034604F6865
:100D20007468BF034CBF14432C4074604F68DCF8F8
:100D30000040FF024CBF14432C40CAF800404F68EB
:100D4000DAF80440BF0254BF05EA04022243CCF89B
:100D50000420013331E70024D4E70124D2E7022440
:100D6000D0E70324CEE70424CCE70524CAE7062411
:100D7000C8E70724C6E70824C4E700BF800000587E
:100D80000044025800000258000C025838B5104CBC
:100D9000E36813F0040FE36805D103F00703181AA2
:100DA00018BF012038BD23F007031843E060FFF7A8
:100DB00087FE054663689B0401D50020F2E7FFF734
:100DC0007FFE401BB0F57A7FF4D90120EAE700BF2F
:100DD000004802584B6A2DE9F04733B1B2F1406F39
:100DE00003D08B6A0468013B23618B690C6A002B7A
:100DF00067D00568002C35D08B68EB61CC694B6AF5
:100E000005688F69D1F820C0D1F83480D1F810E09E
:100E10000E68D1E90BA9A4B144EA0A04144344EAD8
:100E2000090444EA08042343CC6843EA0E0343EA76
:100E30000C0323433B434C69334343EA84436B61D4
:100E40002AE04AEA0904144344EA0804234343EA33
:100E50000E0343EA0C033B4333434E6943EA8646A1
:100E60006E612CE04E69CC69D1F80090B604D1F8DF
:100E700024804F6BD1E90BECACB11C43CB6814431D
:100E800044EA090444EA080444EA0E0444EA0C046F
:100E90003C431C4334436C61B2F1406F0FD0036894
:100EA0004A689A610BE043EA0903134343EA0803E3
:100EB00043EA0E0343EA0C033B4333436B61BDE853
:100EC000F08744B303688C68DC61CC69D1F8248076
:100ED00005688E69D1F820C04B6BD1F810E0D1E9DC
:100EE0000B796CB13C43144344EA09042343CC68B6
:100EF00043EA080343EA0E0343EA0C0323439AE759
:100F000047EA09042243134343EA080343EA0E0372
:100F100043EA0C03A0E7CD694B6A7DB12B43CD6A50
:100F2000046813432B430D6B2B434D6B2B43CD6850
:100F30002B434D6943EA85436361ADE7002BBED087
:100F4000CC6A0068234313430A6B13434A6B134371
:100F50004A6943EA82434361B1E72DE9F041069DC6
:100F600004460F461646984621688A683A4214BFDE
:100F700001220022B24201D1002011E06B1CF4D00A
:100F8000FFF79EFDA0EB0800A84201D8002DEBD191
:100F90000423012084F84130636C43F0010363644F
:100FA000BDE8F0817047000037B50446FFF788FDC3
:100FB0000546002C4FD094F84030012B4DD0012332
:100FC00084F8403094F8412002F0FF033AB984F8E5
:100FD00040302046FFF7E6FF41F28833A3642068E3
:100FE000A1680268013922F4706242EA01222021DC
:100FF00002600022A36C204600932B46FFF7ADFF52
:1010000020BB2168E569E3680A682B43256A22F062
:101010007F422B43656822F0D00243EA0563134305
:101020000B602168D4E905324D681343226943EA15
:1010300002430B4A2A4013434B602268136843F073
:10104000010313600123606484F84130002384F8B5
:10105000403003B030BD0120FBE70220F9E700BFBC
:10106000FEF8E0FF704710B50446A0B190F840309C
:10107000012B12D00268012380F84030136823F05E
:1010800001031360FFF7EEFF0020606484F8410065
:1010900084F8400010BD0120FCE70220FAE72DE9AA
:1010A000F34704468A469146FFF70AFD94F840301C
:1010B0008046012B34D00123022784F8403094F875
:1010C0004160F6B29E4229D100220346CDF800903D
:1010D00020216264204684F84170FFF73EFF0546F8
:1010E000A8B9024651462046FFF774FEDAF82430CC
:1010F0005BB9CDF800904346324639462046FFF7AB
:101100002CFF054618B92368DF6084F8416000238E
:1011100084F84030284602B0BDE8F0873D46F6E747
:101120000225F7E72DE9F341044688461746FFF705
:10113000C7FC94F840300646012B4DD001232568AA
:1011400084F8403094F84100C0B2984242D1002364
:101150006364B8F1000F38D0122384F841302B6952
:101160000133E3622B69C4F824800133A3626B6905
:1011700023F040636B61E36A9BB900973346012219
:1011800002212046FFF7E9FE10B923680222DA6047
:10119000012384F84130002384F8403002B0BDE8D8
:1011A000F08100973346012204212046FFF7D5FE47
:1011B0000028EDD1636A1B7885F82030636A01331B
:1011C0006362E36A013BE362D5E7636C43F00803C3
:1011D0006364E0E70220DEE70220DFE72DE9F34168
:1011E000044617468846FFF76BFC25680646AA6941
:1011F00094F84030012B50D0012384F8403094F80B
:101200004100C0B2984246D100236364B8F1000F98
:101210003CD0222384F841302B690133A3632B692E
:10122000C4F83080013363636B6923F0406343F09B
:1012300080636B6123689A61A36B9BB90097334607
:10124000012202212046FFF788FE10B923680222FE
:10125000DA60012384F84130002384F8403002B082
:10126000BDE8F08100973346012206212046FFF7B2
:1012700074FE0028EDD195F82020236B1A70236BA3
:1012800001332363A36B013BA363D5E7636C43F096
:1012900008036364E0E70220DEE70220DFE72DE9D0
:1012A000F7430446984689461646FFF709FC94F82A
:1012B00040300746012B45D0012384F8403094F894
:1012C0004150EDB29D423BD142230022CDF8008037
:1012D0002021626484F8413003462046FFF73DFE3A
:1012E00040BB2368204632689A62236872685A625B
:1012F0002368B268DA62216833690A6843F48003BC
:1013000022F4400213434FF000620B604946F36839
:10131000C9F82830FFF75EFDCDF800803B462A462D
:1013200008212046FFF719FE20B923680822DA6059
:1013300084F84150002384F8403003B0BDE8F083C6
:101340000220F7E70220F8E7F7B5044617460E46F5
:10135000FFF7B6FB94F840200346012A36D001225D
:1013600084F8402094F84120012A2DD100228221C6
:101370002046626484F84110A16C00912021FFF79F
:10138000ECFD0546D0B922687968136823F008039C
:101390000B4313607B68082B0AD123683A681A63F1
:1013A00010222368DA602268136843F48013136004
:1013B0004FF0406231462046FFF70CFD002384F8D1
:1013C0004030284603B0F0BD0225F7E70225F8E7D4
:1013D000F8B5044608B9012090E00368DD075ED443
:1013E0002368980700F1AC802368DA0623D5AB4B5D
:1013F0001A69996A02F03802082A07D0182A40F0C0
:10140000008101F00302012A40F0FB801B68DB052C
:1014100002D5E369802BDED1FFF758FB41F20303CD
:101420009E4A9842216A00F2E580536823F0F8430F
:1014300043EA816353602368190700F11B81236825
:101440009A0600F1408123685D0722D5944D2B68F0
:1014500043F480732B60FFF733FB06462B68DA05F5
:1014600040F15681A2688D4B012A40F058811A6FD5
:1014700042F001021A67A368002B00F06781FFF7B2
:101480001FFB864D064641F288372B6F9B0740F1C4
:101490005681606A002840F0698100202EE07F4B71
:1014A0001A69996A02F03802102A05D0182A0AD15E
:1014B00001F00302022A06D11B68990390D56368E4
:1014C000002B8DD187E76268744BB2F5803F16D14F
:1014D0001A6842F480321A6063680BB3FFF7F0FABF
:1014E0006E4D064641F288372B689A033FF578AF78
:1014F000FFF7E6FA801BB842F6D90320F8BD3AB9E7
:101500001A6822F480321A601A6822F48022E2E714
:10151000B2F5A02F1A68F4D142F480221A60D7E7FE
:10152000FFF7CEFA5D4D064641F288372B689B03E4
:101530007FF556AFFFF7C4FA801BB842F6D9DCE757
:10154000564B1A69996A12F0380203D0182A1BD137
:101550008E0719D11B685D0703D5E368002B3FF4A4
:101560003AAFFFF7B3FA41F203034C4A98422169BC
:10157000536895BF23F47C3323F0FE4343EA0133E1
:1015800043EA016353602FE7444DE2682B680AB3D6
:1015900023F0190313432B60FFF792FA06462B68DA
:1015A000580711D5FFF792FA41F2030322699842D6
:1015B0006B6895BF23F47C3323F0FE4343EA023388
:1015C00043EA02636B600FE7FFF77AFA801B022899
:1015D000E5D992E723F001032B60FFF771FA064685
:1015E0002B6859077FF500AFFFF76AFA801B0228C6
:1015F000F6D982E7D36823F07C5343EA0163D360D2
:1016000019E7E369254D23B32B6843F080032B6072
:10161000FFF756FA06462B68DF050DD5FFF756FA99
:1016200041F20303226A98420CD86B6823F0F84316
:1016300043EA82636B60FEE6FFF742FA801B0228F2
:10164000E9D95AE7EB6823F07C5343EA0263EB6085
:10165000F1E62B6823F080032B60FFF731FA064692
:101660002B68D8057FF5E7AEFFF72AFA801B022822
:10167000F6D942E76369094DA3B16B6F43F00103EB
:101680006B67FFF71DFA06466B6F9B073FF5D7AEFA
:10169000FFF716FA801B0228F6D92EE700440258FD
:1016A000004802586B6F23F001036B67FFF708FADD
:1016B00006466B6F9F077FF5C2AEFFF701FA801BEE
:1016C0000228F6D919E7A369804D83B12B6843F44A
:1016D00080532B60FFF7F4F906462B6898043FF51A
:1016E000B2AEFFF7EDF9801B0228F6D905E72B68AB
:1016F00023F480532B60FFF7E3F906462B68990427
:101700007FF5A1AEFFF7DCF9801B0228F6D9F4E6DD
:10171000FFF7D6F9801B64287FF6A0AEEDE63AB954
:101720001A6F22F001021A671A6F22F00402A1E672
:10173000052A1A6FF5D142F004021A6797E6FFF7FF
:10174000BFF9801BB8427FF6A0AED6E6FFF7B8F926
:101750005E4D064641F288372B6F98077FF599AEAC
:10176000FFF7AEF9801BB842F6D9C6E6574D2B6994
:1017700003F03803182B7AD02B68022823F08073EB
:101780002B6067D1FFF79CF906462B6899015BD463
:10179000AB6AA26A23F47C7323F003031343E26A67
:1017A00043EA0213AB62636BA26B013B013A5B023B
:1017B00012049BB202F4FE021343226B013AC2F3FD
:1017C00008021343E26B013A120602F0FE42134391
:1017D0002B63EB6A23F00103EB626B6BA26C23F4C7
:1017E0007F4323F0F80343EAC2036B63EB6A226C86
:1017F00023F00C031343EB62EB6A626C23F00203E9
:10180000324C1343EB62EB6A43F48033EB62EB6AD6
:1018100043F40033EB62EB6A43F48023EB62EB6A40
:1018200043F00103EB622B6843F080732B60FFF7FA
:1018300047F9054623689A013FF52FAEFFF740F9B7
:10184000401B0228F6D958E6FFF73AF9801B022818
:101850009BD952E6FFF734F904462B689B017FF5CC
:101860001CAEFFF72DF9001B0228F6D945E601282A
:10187000AA6A2B6B3FF442AE02F00301A06A8142D8
:101880007FF4A9ADC2F30512E16A8A427FF4A3ADE9
:10189000226BC3F30801013A91427FF49CAD626B65
:1018A000C3F34621013A91427FF495ADA26BC3F395
:1018B0000641013A91427FF48EADE06BC3F30663BB
:1018C0000138181A18BF012018E600BF004402585A
:1018D000464B10B51A6902F03802102A00F08480D5
:1018E000182A0CD00AB1424810BD1A68414812F0BB
:1018F000200FF9D01B68C3F3C103D840F4E7996AFD
:10190000986ADA6AC0F305105C6B0028ECD007EE29
:10191000900A02F00102C4F3CC00B7EE006AF8EEC0
:10192000E76A424307EE902A01F00302012AFAEE29
:10193000E97A02D00FD3022A48D01B6BC3F3080305
:1019400007EE103AB8EEC77A77EE277A77EE867A06
:101950009FED296A37E01A68920627D51968254A4B
:10196000C1F3C1011B6BCA40C3F3080307EE102A81
:10197000F8EEC75A85EEA67A06EE903AF8EEE66AD9
:1019800076EEA77A77EE867A184B67EE877A1B6B2E
:10199000C3F34623013307EE103AF8EEC76A87EE29
:1019A000A67AFCEEC77A17EE900A9DE71B6BC3F38D
:1019B000080307EE103AB8EEC77A77EE277A77EE8B
:1019C000867A9FED0E6A86EE267ADDE71B6BC3F3FF
:1019D000080307EE103AB8EEC77A77EE277A77EE6B
:1019E000867A9FED076AEEE706487DE700440258D5
:1019F00000093D000090D0030024744A0024744C78
:101A000020BCBE4B40787D012DE9F0410D460446D7
:101A100010B90120BDE8F081884A136803F00F0374
:101A20008B42C0F0928023685E0700F19A802368A1
:101A300018070BD5824A6069D16901F070018842AC
:101A400004D9D36923F070030343D3612368D90613
:101A50000BD57B4AA069D16901F4E061884204D9C1
:101A6000D36923F4E0630343D36123689A060BD55B
:101A7000734AE069116A01F07001884204D9136A5F
:101A800023F070030343136223689B070BD56C4A52
:101A9000E068916901F00F01884204D9936923F04D
:101AA0000F03034393612368DF0768D423689E070D
:101AB00000F19B80614A136803F00F03AB4200F210
:101AC000A2802368580700F1AA80236819070BD564
:101AD0005B4A6069D16901F07001884204D2D36920
:101AE00023F070030343D3612368DA060BD5544A0D
:101AF000A069D16901F4E061884204D2D36923F47A
:101B0000E0630343D36123689B060BD54C4AE0692D
:101B1000116A01F07001884204D2136A23F0700345
:101B200003431362FFF7D4FE454B464A9B69C3F358
:101B30000323D35C03F01F03D840434B1860434B8F
:101B4000BDE8F0411868FEF75BBF136823F00F0390
:101B50000B431360136803F00F038B427FF459AFFC
:101B600061E7374A2069916901F0700188427FF688
:101B70005EAF936923F070030343936157E7304BE3
:101B8000A1689A6922F470620A439A6161681A68CE
:101B900002291DD112F4003F3FF43BAF1A6941F214
:101BA0008838274E22F007020A431A61FEF788FFA1
:101BB00007463369626803F03803B3EBC20F3FF4A2
:101BC00075AFFEF77DFFC01B4045F2D9032021E72A
:101BD000032902D112F0007FDEE7012902D112F4BD
:101BE000807FD9E712F0040FD6E7154AE0689169C3
:101BF00001F00F018842BFF45DAF936923F00F033A
:101C00000343936156E7136823F00F032B431360DC
:101C1000136803F00F03AB427FF4FBAE51E7084AB1
:101C20002069916901F070018842BFF44EAF936959
:101C300023F070030343936147E700BF0020005285
:101C400000440258201E0008000000200C00002064
:101C5000DFF834D0002103E00C4B5B5843500431D3
:101C60000B480C4B42189A42F6D30B4A02E0002371
:101C700042F8043B094B9A42F9D3FEF783FE00F089
:101C800011F8FEF729FB704700000220401E0008F3
:101C9000000000203C0400203C040020D004002070
:101CA000FEE7000070B50D4E0D4D761BB61006D048
:101CB0000024013455F8043B9847A642F9D1094E57
:101CC000094D761B00F0A0F8B61006D000240134B0
:101CD00055F8043B9847A642F9D170BD341E000860
:101CE000341E00083C1E0008341E0008024B13B1CD
:101CF000024800F005B87047000000000D1D000804
:101D0000002301461A46184600F01EB838B50A4CA2
:101D10000A4D641BA4100AD004F18043013B05EB7B
:101D20008305013C55F804399847002CF9D1BDE8EA
:101D3000384000F06FB800BF401E00083C1E00088D
:101D4000704700BF704700BF2DE9F8432B4D064692
:101D5000286898460F469146FFF7F2FF284B1C680B
:101D6000D4F84831002B3DD05A681F2A0DDC02F10F
:101D7000010C16BB0232C3F804C0286843F8227075
:101D8000FFF7E0FF0020BDE8F8831E4B7BB34FF464
:101D9000C870AFF30080034648B3D4F8482100214F
:101DA000C0E900214FF0010CC4F848010A46C0F810
:101DB0008811C0F88C11002EDCD003EB82010124C5
:101DC000C1F88890D3F8880194402043022EC3F8CC
:101DD0008801C1F80881CDD1D3F88C110C43C3F828
:101DE0008C41C7E704F5A673C4F84831BCE72868FE
:101DF000FFF7A8FF4FF0FF30C5E700BF3804002011
:101E0000301E000800000000F8B500BFF8BC08BC98
:101E10009E467047F8B500BFF8BC08BC9E467047A8
:101E20000000000001020304010203040607080980
:101E300010000020ED1C0008BD02000899020008F7
:101E40000090D0030090D0030100000010000000BB
:101E500000000000FC02002064030020CC030020EE
:101E60000000000000000000000000000000000072
:101E70000000000000000000000000000000000062
:101E80000000000000000000000000000000000052
:101E90000000000000000000000000000000000042
:101EA0000000000000000000000000000000000032
:101EB0000000000000000000000000000000000022
:101EC0000000000000000000000000000000000012
:101ED0000000000000000000000000000000000002
:101EE00000000000000000000000000000000000F2
:101EF00000000000000000000100000000000000E1
:101F00000E33CDAB34126DE6ECDE05000B000000A5
:101F100000000000000000000000000000000000C1
:101F200000000000000000000000000000000000B1
:101F300000000000000000000000000000000000A1
:101F40000000000000000000000000000000000091
:0C2270000000000000000000AC04002092
:0200000490006A
:10000000000008248D060090E55A0090E95A0090FF
:10001000ED5A0090F15A0090F55A0090000000004F
:10002000000000000000000000000000B10F01907F
:10003000F95A00900000000041100190CD06019097
:10004000DD060090DD060090DD060090DD060090E4
:10005000DD060090DD060090DD060090DD060090D4
:10006000DD060090DD060090DD060090DD060090C4
:10007000DD060090DD060090DD060090DD060090B4
:10008000DD060090DD060090DD060090DD060090A4
:10009000DD060090DD060090DD060090DD06009094
:1000A000DD060090DD060090DD060090DD06009084
:1000B000DD060090DD060090DD060090DD06009074
:1000C000DD060090DD060090DD060090DD06009064
:1000D000DD060090DD060090DD060090DD06009054
:1000E000DD060090DD06009000000000DD060090B7
:1000F000DD060090DD060090DD060090DD06009034
:10010000DD060090DD060090DD060090DD06009023
:10011000DD060090DD060090FD5A0090DD0600909F
:10012000DD060090DD060090DD060090DD06009003
:10013000DD060090DD060090DD060090DD060090F3
:1001400000000000000000000000000000000000AF
:10015000DD060090DD060090DD060090DD060090D3
:10016000DD060090DD060090DD060090DD060090C3
:10017000DD060090DD060090DD060090DD060090B3
:10018000DD060090DD060090DD060090DD060090A3
:10019000DD060090DD060090DD060090DD06009093
:1001A000095B0090DD060090155B0090DD06009075
:1001B000DD060090DD060090DD060090DD06009073
:1001C000DD060090DD060090DD060090DD06009063
:1001D000DD060090DD060090DD060090DD06009053
:1001E000DD060090DD060090DD060090DD06009043
:1001F000DD060090DD060090DD060090DD06009033
:10020000DD060090DD060090DD060090DD06009022
:10021000DD060090DD060090DD060090DD06009012
:10022000DD060090215B00902D5B00900000000037
:10023000DD060090DD06009000000000DD06009065
:10024000DD060090DD060090DD060090DD060090E2
:10025000DD060090DD060090DD060090DD060090D2
:10026000DD060090DD060090DD060090DD060090C2
:10027000DD060090DD060090DD0600900000000025
:10028000DD060090DD060090DD0600900000000015
:0802900000000000DD060090F3
:1002A00010B5054C237833B9044B13B10448AFF3B0
:1002B00000800123237010BD5801002400000000BD
:1002C00010B0029008B5034B1BB103490348AFF3CC
:1002D000008008BD000000005C01002410B0029006
:1002E000034613F8012B002AFBD1181A0138704776
:1002F00001F0FF01102A2BDB10F0070F08D010F8D7
:10030000013B013A8B422DD010F0070F42B3F6D1DA
:10031000F0B441EA012141EA014122F007047FF0F3
:1003200000070023F0E80256083C85EA010586EA4A
:10033000010685FA47F5A3FA87F586FA47F6A5FA86
:1003400087F68EB9EED1F0BC01F0FF0102F0070292
:1003500032B110F8013B013A83EA010313B1F8D13D
:100360000020704701387047002D06BF354603381E
:10037000073815F0010F07D1013015F4807F02BF57
:10038000013015F4C03F0130F0BC0138704700BFA8
:1003900053B94AB9002908BF00281CBF4FF0FF31EC
:1003A0004FF0FF3000F070B9ADF1080C6DE904CEEC
:1003B00000F006F8DDF804E0DDE9022304B0704740
:1003C0002DE9F047089E0D4604460F46002B4AD102
:1003D0008A42944665D9B2FA82F343B102FA03FC29
:1003E000C3F120029F4020FA02F217439C404FEADB
:1003F0001C4E1FFA8CF5B7FBFEF1220C0EFB117799
:1004000042EA074201FB05F090420AD91CEB0202C6
:1004100001F1FF3780F01C81904240F219810239CE
:100420006244121AA4B2B2FBFEF00EFB102244EAA0
:10043000024400FB05F5A5420AD91CEB040400F1B7
:10044000FF3280F00781A54240F204816444023803
:1004500040EA0140641B00211EB1DC400023C6E9D4
:100460000043BDE8F0878B4208D9002E00F0ED80F4
:100470000021C6E900050846BDE8F087B3FA83F11C
:10048000002949D1AB4202D3824200F2F880841A9B
:1004900065EB030201201746002EE2D0C6E90047B3
:1004A000DFE702B9FFDEB2FA82F3002B40F0908062
:1004B0008A1A4FEA1C471FFA8CFE0121B2FBF7F59E
:1004C00007FB1520220C42EA00420EFB05F0904289
:1004D00008D91CEB020205F1FF3802D2904200F26B
:1004E000CB804546121AA4B2B2FBF7F007FB1022EC
:1004F00044EA02440EFB00FEA64508D91CEB0404A6
:1005000000F1FF3202D2A64500F2BB801046A4EBF8
:100510000E0440EA05409FE7C1F120078B4022FA14
:1005200007FC4CEA030C05FA01F420FA07F3FD403E
:100530004FEA1C492343B5FBF9F81FFA8CFE09FB6F
:1005400018551C0C44EA054408FB0EF5A54202FAB6
:1005500001F200FA01F00BD91CEB040408F1FF3A98
:1005600080F08880A54240F28580A8F102086444AA
:10057000641B9DB2B4FBF9F309FB134445EA044440
:1005800003FB0EFEA64508D91CEB040403F1FF355E
:100590006CD2A6456AD9023B644443EA0843A3FBF4
:1005A0000295A4EB0E04AC42C846AE4656D353D0D7
:1005B00056B1B0EB080264EB0E0404FA07F7CA4028
:1005C000CC401743C6E9007418460021BDE8F08707
:1005D000C3F1200102FA03FC20FA01F225FA01F12D
:1005E0009D402A434FEA1C471FFA8CFEB1FBF7F0EF
:1005F00007FB1015110C41EA054100FB0EF58D4279
:1006000004FA03F408D91CEB010100F1FF382FD2E2
:100610008D422DD902386144491B92B2B1FBF7F5E6
:1006200007FB151142EA014205FB0EF1914208D980
:100630001CEB020205F1FF3816D2914214D9023D9B
:100640006244521A45EA004138E73146304608E72D
:100650003946E6E61046FBE64845A9D2B9EB020862
:1006600065EB0C0E013BA3E74546EAE72B4694E712
:100670004046D1E7D0467BE7023D624432E7084678
:100680000AE76444023842E7704700BFDFF834D01D
:10069000002103E00C4B5B58435004310B480C4BDA
:1006A00042189A42F6D30B4A02E0002342F8043B78
:1006B000094B9A42F9D309F071FC29F00BFE04F0C2
:1006C00073FB704700000824E4F00290000000244F
:1006D000540100245801002408430224FEE70000CE
:1006E000704700BF10B5002284B00821B6480AF058
:1006F0005DF90A2102220123009103A98DF80C2043
:100700000DF10F02B1480EF0B9FD002840F05881FC
:100710000A210F220123AD48009103A98DF80C2076
:100720006A440EF0ABFD002840F0D181012208217F
:10073000A5480AF03BF900220821A3480AF036F93F
:100740000A2154220123009103A98DF80C200DF1F8
:100750000F029E480EF092FD002840F0B5810A215C
:100760008D2201239948009103A98DF80C200DF1E9
:100770000F020EF083FD002840F0A3810122082122
:1007800091480AF013F9002208218F480AF00EF967
:100790000A2156220123009103A98DF80C200DF1A6
:1007A0000F028A480EF06AFD002840F087810A2176
:1007B0003E2201238548009103A98DF80C200DF1FC
:1007C0000F020EF05BFD002840F075810122082128
:1007D0007D480AF0EBF8002208217B480AF0E6F891
:1007E0000A215A220123009103A98DF80C200DF152
:1007F0000F0276480EF042FD002840F059810A2190
:100800001E2201237148009103A98DF80C200DF1DF
:100810000F020EF033FD002840F04781012208212D
:1008200069480AF0C3F80022082167480AF0BEF8B8
:100830000A2158220123009103A98DF80C200DF103
:100840000F0262480EF01AFD002840F02B810A21A9
:10085000002201235D48009103A98DF80C200DF1C1
:100860000F020EF00BFD002840F019810122082133
:1008700055480AF09BF80022082153480AF096F8E0
:100880000A214C220123009103A98DF80C200DF1BF
:100890000F024E480EF0F2FC002840F0FD800A21C5
:1008A000702201234948009103A98DF80C200DF115
:1008B0000F020EF0E3FC002840F0EB80012208213B
:1008C00041480AF073F8002208213F480AF06EF808
:1008D0000A212A220123009103A98DF80C200DF191
:1008E0000F023A480EF0CAFC002840F0CF800A21DF
:1008F000402201233548009103A98DF80C200DF109
:100900000F020EF0BBFC002840F0BD800122082140
:100910002D480AF04BF8002208212B480AF046F82F
:100920000A2122220123009103A98DF80C200DF148
:100930000F0226480EF0A2FC002840F0A1800A21F8
:100940003D2201232148009103A98DF80C200DF1CF
:100950000F020EF093FC002840F08F800122082146
:1009600019480AF023F80022082117480AF01EF857
:100970000A21A8220123009103A98DF80C200DF172
:100980000F0212480EF07AFC002873D10A210022CF
:1009900001230E48009103A98DF80C200DF10F02E0
:1009A0000EF06CFC002862D101220821064809F0F3
:1009B000FDFF9DF80F2012F0030209D004B010BD16
:1009C00004F026FDA4E600BF001002589094002415
:1009D0000821464809F0EAFF0A21A82201230091D4
:1009E00003A98DF80C200DF10F0241480EF046FCD2
:1009F00000286FD10A21002201233D48009103A95C
:100A00008DF80C200DF10F020EF038FC00286AD191
:100A100001220821354809F0C9FF00220821334886
:100A20009DF80F4009F0C2FF0A23282203A930488D
:100A3000009301238DF80C200DF10F0244F0030404
:100A40000EF01CFC00284BD10A2001230DF10F02EF
:100A500003A9009026488DF80C400EF00FFCE0BB77
:100A600001220821214809F0A1FF04B010BD04F0C3
:100A7000CFFC99E704F0CCFC88E704F0C9FC6DE7F3
:100A800004F0C6FC5BE704F0C3FC3FE704F0C0FCE5
:100A90002DE704F0BDFC11E704F0BAFCFFE604F01A
:100AA000B7FCE3E604F0B4FCD1E604F0B1FCB5E633
:100AB00004F0AEFCA3E604F0ABFC87E604F0A8FC6F
:100AC00075E604F0A5FC59E604F0A2FC47E604F044
:100AD0009FFC2BE604F09CFC8CE704F099FCBFE73C
:100AE00004F096FCB0E704F093FC91E70010025884
:100AF0009094002462B10139024401E0904207D091
:100B000010F8013B11F801CF9C45F7D00120704748
:100B100000207047F0B506468FB00021144F751EB7
:100B200001AC03362E2202A8019129F019FB2046C0
:100B3000FFF7D6FB15F8012F3946204429F018FAA3
:100B4000B542F4D12046FFF7CBFB0A4B25182146CE
:100B50001A889E780A23225232220748AE700EF07D
:100B6000BBFE08B90FB0F0BD04F052FC0FB0F0BDF1
:100B700068B002906CB00290189500242DE9F047FF
:100B8000002284B004468846C948082109F00EFFB7
:100B90000A221A2303A900920DF10F028DF80C30DE
:100BA0000123C4480EF06AFB002840F04C82072362
:100BB0000DF10F0203A9BF488DF80C300A230093F2
:100BC00001230EF05BFB002840F052830122082134
:100BD000B74809F0EBFE00220821B54888F800402C
:100BE00009F0E4FE0A23042203A9009301238DF8EF
:100BF0000C200DF10F02AF480EF040FB002840F032
:100C000034830A23F72203A9AA48009301238DF80D
:100C10000C200DF10F020EF031FB002840F0228372
:100C200001220821A24809F0C1FE00220821A048A3
:100C300009F0BCFE0A23882203A9009301238DF842
:100C40000C200DF10F029B480EF018FB002840F01D
:100C500006830A23002203A99648009301238DF8F6
:100C60000C200DF10F020EF009FB002840F0F48279
:100C7000012208218E4809F099FE002208218C48A3
:100C80009DF80F4009F092FE08230DF10F0203A911
:100C900088488DF80C300A2304F07F040093012368
:100CA0000EF0ECFA002840F0D4820A230DF10F0276
:100CB00003A98048009301238DF80C400EF0DEFA62
:100CC000002840F0C38201220821794809F06EFE15
:100CD00000220821764809F069FE0A23942203A91C
:100CE000009301238DF80C200DF10F0271480EF0D6
:100CF000C5FA002840F0A7820A23002203A96D4804
:100D0000009301238DF80C200DF10F020EF0B6FABE
:100D1000002840F0958201220821654809F046FE2E
:100D20000022082162489DF80F4009F03FFE14237D
:100D30000DF10F0203A95F488DF80C300A2344F02F
:100D40008004009301230EF099FA002840F0758288
:100D50000A230DF10F0203A95648009301238DF8D1
:100D60000C400EF08BFA002840F06482012208212A
:100D70004F4809F01BFE002208214D4809F016FEDD
:100D80000A23022203A9009301238DF80C200DF100
:100D90000F0248480EF072FA002840F048820A23F9
:100DA000002203A94348009301238DF80C200DF184
:100DB0000F020EF063FA002840F03682012208216B
:100DC0003B4809F0F3FD00220821394898F800500B
:100DD00009F0ECFD12230DF10F0203A935488DF83F
:100DE0000C300A23009301230EF048FA08B104F0F6
:100DF0000FFB0A2401230DF10F0203A92D480094D3
:100E00008DF80C500EF03AFA002840F0C180012213
:100E1000082127480A2509F0C9FD022400220821DB
:100E2000234809F0C3FD01230DF10F0203A9214856
:100E300000958DF80C400EF021FA002840F0F18169
:100E40000A230C2203A91B48009301238DF80C20D0
:100E50000DF10F020EF012FA002840F0DF8101229E
:100E60000821134809F0A2FD00220821104809F0CA
:100E70009DFD0A239A2203A9009301238DF80C20DB
:100E80000DF10F020B480EF0F9F9002840F0C38174
:100E90000A23002203A90748009301238DF80C20A0
:100EA0000DF10F020EF0EAF9002840F0B18103E0E5
:100EB000001002589094002401220821634809F090
:100EC00075FD0022082161489DF80F4009F06EFD74
:100ED0001A230DF10F0203A95D488DF80C300A2387
:100EE00044F08004009301230EF0C8F9002840F07C
:100EF0008C810A230DF10F0203A9554800930123A9
:100F00008DF80C400EF0BAF9002840F07B814F4F6D
:100F1000012208214FF4FA6438464D4E09F046FD8F
:100F20001BE04FF00A0C002501230DF10F0203A96D
:100F30003046CDF800C08DF80C500EF09FF920BB64
:100F4000013C012208213846A4B209F02FFD9DF88A
:100F50000F5004B315F0310F1DD10022082138467F
:100F6000882509F023FD4FF00A0C01230DF10F0233
:100F700003A93046CDF800C08DF80C500EF07EF974
:100F80000028CED004F044FACBE704F041FAD7E7CA
:100F900004F03EFA3BE7002208212C4809F006FD48
:100FA0000A230DF10F0203A900939A2328488DF814
:100FB0000C3001230EF062F9002840F020810A2352
:100FC0000DF10F0203A92248009300238DF80C3085
:100FD00001230EF053F9002840F00E810122082170
:100FE0001A4809F0E3FC0022082118489DF80F6018
:100FF00009F0DCFC0A230DF10F0203A91448009349
:101000001A2306F07F068DF80C3001230EF036F916
:10101000002840F0EE800A230DF10F0203A90C48CE
:10102000009301238DF80C600EF028F9002840F0A1
:10103000DD8001220821054809F0B8FC54B90120DF
:1010400004B0BDE8F08704F0E3F9B0E50010025801
:1010500090940024002208219A4809F0A7FC8C23D0
:101060000DF10F0203A98DF80C300A239648009366
:1010700001230EF003F9002840F0128100230DF146
:101080000F0203A990488DF80C300A230093012326
:101090000EF0F4F8002840F0008101220821894870
:1010A00009F084FC9DF80F2012F01B02C7D1082123
:1010B000844809F07BFC94230DF10F0203A98DF8FD
:1010C0000C300A238048009301230EF0D7F8002843
:1010D00040F0F48000230DF10F0203A97A488DF847
:1010E0000C300A23009301230EF0C8F8002840F0CA
:1010F000E28001220821734809F058FC00220821EF
:1011000070489DF80F4009F051FC0A230DF10F02C1
:1011100003A96D48009398238DF80C3001230EF03D
:10112000ADF8002840F0C4800A230DF10F0203A996
:101130006548009300238DF80C3001230EF09EF8D3
:10114000002840F0B280012208215E4809F02EFC00
:101150009DF80F3013F0070300F0A580621E03EB2B
:10116000C2039FB2102C4FF0000ADFF8589128BF3D
:101170001024554E012C38BF0124013C18FA84F488
:1011800008F1FF3800220821484609F00FFC0A2325
:10119000922203A9009330468DF80C2001230DF113
:1011A0000F020EF06BF8002874D10A22012303A964
:1011B000304600920DF10F028DF80CA00EF05EF893
:1011C0000122002857D10821484609F0EFFB9DF87D
:1011D0000F3008F8013F4445D4D105F00100102F2D
:1011E00018BF40F0010004B0BDE8F08704F010F92A
:1011F0001FE704F00DF90EE704F00AF9EEE604F03B
:1012000007F9DCE604F004F981E604F001F970E680
:1012100004F0FEF850E604F0FBF839E604F0F8F8C4
:101220001DE604F0F5F80BE604F0F2F8C6E504F06C
:10123000EFF8B4E504F0ECF898E504F0E9F887E598
:1012400004F0E6F867E504F0E3F855E504F0E0F8AB
:1012500039E504F0DDF828E504F0DAF808E504F0F3
:10126000D7F8F6E404F0D4F8DAE404F0D1F8C8E4EE
:1012700004F0CEF8AAE404F0CBF801220821484695
:1012800009F094FB9DF80F3008F8013FA0457FF46A
:1012900079AFA2E704F0BCF887E704F0B9F8FCE600
:1012A00004F0B6F8EAE6E7005CE704F0B1F84AE7D4
:1012B00004F0AEF838E704F0ABF81AE704F0A8F849
:1012C00008E700BF00100258909400242DE9F04F69
:1012D000002285B008218046A94809F067FB0A234F
:1012E0001A2203A9009301238DF80C200DF10F029F
:1012F000A4480DF0C3FF002840F061820A230022B9
:1013000003A9A048009301238DF80C200DF10F02D2
:101310000DF0B4FF002840F05783012208219848BF
:1013200009F044FB42F29303002208219448A8F8F4
:10133000003009F03BFB0A23042203A90093012398
:101340008DF80C200DF10F028E480DF097FF00284C
:1013500040F037830A23F72203A98A480093012328
:101360008DF80C200DF10F020DF088FF002840F0E1
:10137000258301220821824809F018FB0022082158
:101380007F4809F013FB0A23882203A90093012355
:101390008DF80C200DF10F027A480DF06FFF002838
:1013A00040F009830A23002203A976480093012311
:1013B0008DF80C200DF10F020DF060FF002840F0B9
:1013C000F782012208216E4809F0F0FA0022082174
:1013D0006B489DF80F4009F0E9FA08230DF10F0260
:1013E00003A968488DF80C300A2304F07F040093A9
:1013F00001230DF043FF002840F0D7820A230DF1AE
:101400000F0203A95F48009301238DF80C400DF0F3
:1014100035FF002840F0C68201220821584809F013
:10142000C5FA00220821564809F0C0FA0A2394227E
:1014300003A9009301238DF80C200DF10F025148F0
:101440000DF01CFF002840F0AA820A23002203A905
:101450004C48009301238DF80C200DF10F020DF084
:101460000DFF002840F0988201220821444809F02D
:101470009DFA0022082142489DF80F4009F096FA93
:1014800014230DF10F0203A93E488DF80C300A23F6
:1014900044F08004009301230DF0F0FE002840F09A
:1014A00078820A230DF10F0203A936480093012325
:1014B0008DF80C400DF0E2FE002840F0678201221A
:1014C00008212F4809F072FA002208212C4809F05F
:1014D0006DFA0A23022203A9009301238DF80C2040
:1014E0000DF10F0227480DF0C9FE002840F04B8295
:1014F0000A23002203A92348009301238DF80C201E
:101500000DF10F020DF0BAFE002840F039821C4D9B
:1015100008F1FF390122082128460A27194E4C46B6
:1015200009F044FA28460022082194F801B009F095
:101530003DFA4FF0120C0DF10F0203A901233046C2
:10154000009704F1010A8DF80CC00DF097FE0028F9
:1015500040F0DA8001230DF10F0203A93046009715
:101560008DF80CB00DF08AFE0346012208212846B2
:1015700053B909F01BFA44450FD05446D2E700BFD7
:10158000001002589094002403F042FF0122082129
:10159000284609F00BFA4445EFD10022082189487A
:1015A00009F004FA02230DF10F0203A98DF80C30A3
:1015B0000A238548009301230DF060FE002840F0C7
:1015C000DC810C230DF10F0203A97F488DF80C304C
:1015D0000A23009301230DF051FE002840F0CA8138
:1015E00001220821774809F0E1F900220821754815
:1015F00009F0DCF99A230DF10F0203A98DF80C30E4
:101600000A237148009301230DF038FE002840F0B2
:10161000AE8100230DF10F0203A96B488DF80C3049
:101620000A23009301230DF029FE002840F09C813D
:1016300001220821634809F0B9F900220821614814
:101640009DF80F4009F0B2F90A230DF10F0203A92A
:101650005D4800931A2344F080048DF80C30012378
:101660000DF00CFE002840F07C810A230DF10F02E2
:1016700003A95548009301238DF80C400DF0FEFDA1
:10168000002840F06B814F4F012208214FF4FA648B
:1016900038464D4E09F08AF91BE04FF00A0C002540
:1016A00001230DF10F0203A93046CDF800C08DF8DB
:1016B0000C500DF0E3FD20BB013C0122082138460F
:1016C000A4B209F073F99DF80F5004B315F0310F6F
:1016D0001DD1002208213846882509F067F94FF00E
:1016E0000A0C01230DF10F0203A93046CDF800C00A
:1016F0008DF80C500DF0C2FD0028CED003F088FE0E
:10170000CBE703F085FED7E703F082FE22E7002255
:1017100008212C4809F04AF90A230DF10F0203A908
:1017200000939A2328488DF80C3001230DF0A6FD74
:10173000002840F010810A230DF10F0203A922486E
:10174000009300238DF80C3001230DF097FD002845
:1017500040F0FE80012208211A4809F027F90022F2
:10176000082118489DF80F6009F020F90A230DF1AF
:101770000F0203A9144800931A2306F07F068DF880
:101780000C3001230DF07AFD002840F0DE800A23A2
:101790000DF10F0203A90C48009301238DF80C6092
:1017A0000DF06CFD002840F0CD8001220821054895
:1017B00009F0FCF854B9012005B0BDE8F08F03F042
:1017C00027FE9BE500100258909400240022082177
:1017D000954809F0EBF80A230DF10F0203A90093D5
:1017E0008C2392488DF80C3001230DF047FD002822
:1017F00040F00A810A230DF10F0203A98B480093E0
:1018000000238DF80C3001230DF038FD002840F046
:10181000F88001220821844809F0C8F89DF80F20BB
:1018200012F01B02C7D108217F4809F0BFF80A2334
:101830000DF10F0203A9009394237C4805F00105E4
:101840008DF80C3001230DF019FD002840F0E880E0
:101850000A230DF10F0203A97448009300238DF8A9
:101860000C3001230DF00AFD002840F0D680012243
:1018700008216D4809F09AF8002208216A489DF86D
:101880000F4009F093F80A230DF10F0203A96748EE
:10189000009398238DF80C3001230DF0EFFC002805
:1018A00040F0B8800A230DF10F0203A95F480093AE
:1018B00000238DF80C3001230DF0E0FC002840F0EF
:1018C000A6800122082158484FF0000A09F06EF85E
:1018D000102C554E28BF1024012C38BF0124671E40
:1018E000524C18FA87F717E00A22012303A9204671
:1018F00000920DF10F028DF80CA00DF0BFFC01223B
:10190000002864D10821304609F050F89DF80F30C6
:1019100009F8013FB9455ED000220821304609F0A0
:1019200045F80A23922203A9009320468DF80C2043
:1019300001230DF10F020DF0A1FC0028D4D003F01B
:1019400067FDD1E703F064FD2FE703F061FD1EE7BB
:1019500003F05EFDFEE603F05BFDECE603F058FDF0
:1019600091E603F055FD80E603F052FD60E603F0DA
:101970004FFD4EE603F04CFD32E603F049FD20E654
:1019800003F046FDC3E503F043FDB1E503F040FD80
:1019900095E503F03DFD84E503F03AFD64E503F0D1
:1019A00037FD52E503F034FD36E503F031FD25E562
:1019B00003F02EFD05E503F02BFDF3E403F028FD15
:1019C000D7E403F025FDC5E403F022FDA5E403F010
:1019D0001FFD012296E7002D7FF4EDAE98F801007F
:1019E00098F8023098F80010434098F8032098F8CF
:1019F00004004B405340C01A18BF012005B0BDE899
:101A0000F08F03F005FD04E703F002FDF2E603F0BA
:101A1000FFFC56E703F0FCFC44E703F0F9FC26E783
:101A200003F0F6FC14E700BF001002589094002465
:101A30002DE9F047002284B050230821A6480392E4
:101A40008DF80C3008F0B2FF0A218A220123A34846
:101A5000009102A98DF808200DF10B020DF00EFC8B
:101A6000002840F0E4830A21002201239B480091D2
:101A700002A98DF808200DF10B020DF0FFFB0028E4
:101A800040F00D8501220821934808F08FFF0022C5
:101A9000082191489DF80B4008F088FF0A22012395
:101AA00002A98E48009204F0FB048DF808200DF185
:101AB0000B020DF0E3FB002840F0ED840A22012325
:101AC00002A9864800920DF10B028DF808400DF036
:101AD000D5FB002840F0DB84012208217E4808F075
:101AE00065FF002208217C4808F060FF0A2194224B
:101AF0000123009102A98DF808200DF10B0277480F
:101B00000DF0BCFB002840F0BE840A210022012316
:101B10007248009102A98DF808200DF10B020DF01A
:101B2000ADFB002840F0AB84012208216A4808F090
:101B30003DFF0022082168489DF80B4008F036FF61
:101B40000A23142202A96548009301238DF8082076
:101B50000DF10B0244F080040DF090FB002840F0E2
:101B60008A840A22012302A95C4800920DF10B022B
:101B70008DF808400DF082FB002840F0788403AF18
:101B80000DF10E0A544D4FF00A083C46534E012207
:101B90000821514808F00AFF00220821284614F8BD
:101BA000019B08F003FF4FF0120C01230DF10B0213
:101BB00002A93046CDF800808DF808C00DF05EFB1C
:101BC000002840F0858001230DF10B0202A9304668
:101BD000CDF800808DF808900DF050FB03460122EF
:101BE00008212846002B68D108F0E0FE5445D3D1E7
:101BF00000220821384808F0D9FE0A23022202A94F
:101C0000009301238DF808200DF10B0233480DF0ED
:101C100035FB002840F027840A23032202A92F481D
:101C2000009301238DF808200DF10B020DF026FB27
:101C3000002840F01484284E01220821FF24304659
:101C4000264D08F0B3FE1CE04FF00A0E4FF0000CDA
:101C500001230DF10B0202A92846CDF800E08DF812
:101C600008C00DF00BFB28BB01220821304608F00C
:101C70009DFE631E9DF80B2013F0FF0430D0530728
:101C80002ED400220821304608F090FE4FF00A0EB4
:101C90004FF08A0C01230DF10B0202A92846CDF862
:101CA00000E08DF808C00DF0E9FA0028CCD003F070
:101CB000AFFBC9E703F0ACFBD6E703F0A9FB0122B9
:101CC0000821284608F072FE54457FF465AF8FE77F
:101CD00003F09EFB77E700BF0010025890940024A9
:101CE00000220821CE4808F061FE0A23C42202A97E
:101CF000009301238DF808200DF10B02C9480DF067
:101D0000BDFA002840F0A8830A23002202A9C54892
:101D1000009301238DF808200DF10B020DF0AEFAAF
:101D2000002840F0968301220821BD4808F03EFEBD
:101D30009DF80B3000220821B9488DF80E3008F0CC
:101D400035FE0A23C22202A9B648009301238DF86A
:101D500008200DF10B020DF091FA002840F0768377
:101D60000A23002202A9AF48009301238DF808201E
:101D70000DF10B020DF082FA002840F0648301227D
:101D80000821A74808F012FE9DF80B300022082118
:101D9000A3488DF80F3008F009FE0A23042202A997
:101DA000A048009301238DF808200DF10B020DF0DF
:101DB00065FA002840F044830A23F72202A99948D3
:101DC000009301238DF808200DF10B020DF056FA57
:101DD000002840F0328301220821914808F0E6FDF6
:101DE000002208218E4808F0E1FD0A23882202A97A
:101DF000009301238DF808200DF10B0289480DF0A6
:101E00003DFA002840F016830A23002202A98548E3
:101E1000009301238DF808200DF10B020DF02EFA2E
:101E2000002840F00483012208217D4808F0BEFD0F
:101E3000002208217A489DF80B4008F0B7FD0823DE
:101E40000DF10B0202A977488DF808300A2304F03F
:101E50007F04009301230DF011FA002840F0E48282
:101E60000A230DF10B0202A96E48009301238DF89D
:101E700008400DF003FA002840F0D3820122082127
:101E8000674808F093FD00220821654808F08EFDA0
:101E90000A23942202A9009301238DF808200DF152
:101EA0000B0260480DF0EAF9002840F0B7820A23DF
:101EB000002202A95B48009301238DF808200DF150
:101EC0000B020DF0DBF9002840F0A5820122082169
:101ED000534808F06BFD0022082151489DF80B4043
:101EE00008F064FD14230DF10B0202A94D488DF892
:101EF00008300A2344F08004009301230DF0BEF95A
:101F0000002840F085820A230DF10B0202A9454802
:101F1000009301238DF808400DF0B0F9002840F03F
:101F20007482012208213E4808F040FD0022082169
:101F30003B4808F03BFD0A23022202A9009301233B
:101F40008DF808200DF10B0236480DF097F90028A6
:101F500040F058820A23002202A93248009301234C
:101F60008DF808200DF10B020DF088F9002840F0E3
:101F700046822B4D0122082107F1040A28463C46DF
:101F80004FF00A08274E08F011FD002208212846CC
:101F900014F8019B08F00AFD4FF0120C01230DF11B
:101FA0000B0202A93046CDF800808DF808C00DF074
:101FB00065F9002840F0E18001230DF10B0202A930
:101FC0003046CDF800808DF808900DF057F90346A3
:101FD000012208212846002B40F0C48008F0E6FCCE
:101FE0005445D2D1002208210D4808F0DFFC0A2315
:101FF000022202A9009301238DF808200DF10B02A3
:1020000008480DF03BF9002840F0F6810A230C2225
:1020100002A90448009301238DF8082004E000BFC2
:1020200000100258909400240DF10B020DF026F9D7
:10203000002840F0DE8101220821C74808F0B6FCE4
:1020400000220821C44808F0B1FC0A239A2202A900
:10205000009301238DF808200DF10B02BF480DF00D
:102060000DF9002840F0C2810A23002202A9BB48D2
:10207000009301238DF808200DF10B020DF0FEF8FE
:10208000002840F0B08101220821B34808F08EFCFE
:1020900000220821B0489DF80B4008F087FC1A2365
:1020A0000DF10B0202A9AD488DF808300A2344F067
:1020B0008004009301230DF0E1F8002840F09081A6
:1020C0000A230DF10B0202A9A448009301238DF805
:1020D00008400DF0D3F8002840F07F819E4E012289
:1020E00008214FF4FA6430469C4D08F05FFC0DE087
:1020F000013C012208213046A4B208F057FC9DF8AB
:102100000B30002C3CD013F0310F39D100220821C4
:10211000304608F04BFC4FF00A0E4FF0880C0123BC
:102120000DF10B0202A92846CDF800E08DF808C099
:102130000DF0A4F898B94FF00A0E4FF0000C0123EF
:102140000DF10B0202A92846CDF800E08DF808C079
:102150000DF094F80028CBD003F05AF9C8E703F04B
:1021600057F9E8E703F054F901220821284608F05E
:102170001DFC54457FF409AF34E703F049F91BE730
:1021800000220821744808F011FC9A230DF10B027B
:1021900002A98DF808300A237048009301230DF03E
:1021A0006DF8002840F0168100230DF10B0202A902
:1021B0006A488DF808300A23009301230DF05EF879
:1021C000002840F0048101220821634808F0EEFB5A
:1021D0000022082160489DF80B5008F0E7FB0A2315
:1021E0000DF10B0202A95D4800931A2305F07F054B
:1021F0008DF8083001230DF041F8002840F0E4800C
:102200000A230DF10B0202A95448009301238DF813
:1022100008500DF033F8002840F0D3800122082147
:102220004D4808F0C3FB2CB904B0BDE8F08703F0BB
:10223000EFF818E400220821474808F0B7FB0A230A
:102240008C2202A9009301238DF808200DF10B02C6
:1022500042480DF013F8002840F037810A2300228D
:1022600002A93E48009301238DF808200DF10B02CE
:102270000DF004F8002840F025810122082136489D
:1022800008F094FB9DF80B2012F01B02CCD1082122
:10229000314808F08BFB0A23942202A90093012302
:1022A0008DF808200DF10B022C480CF0E7FF0028F8
:1022B00040F017810A23002202A928480093012335
:1022C0008DF808200DF10B020CF0D8FF002840F02B
:1022D000028101220821204808F068FB0022082121
:1022E0001D489DF80B8008F061FB98230DF10B024F
:1022F00002A91A488DF808300A23009301230CF034
:10230000BDFF002840F0E48000230DF10B0202A97C
:1023100012488DF808300A23009301230CF0AEFF19
:10232000002840F0DB80012208210B487C1C08F0CB
:102330003DFBB8F1100F4FF00009074E28BF4FF0DA
:102340001008064DB8F1010F38BF4FF0010808F131
:10235000FF3814FA88F81EE0001002589094002408
:102360000A230DF10B0202A92846009301238DF8E0
:1023700008900CF083FF0122002840F0948008218F
:10238000304608F013FB9DF80B30A0453B70274604
:102390003FF44AAF013430460022082108F006FB22
:1023A00092230DF10B0202A98DF808300A2328466A
:1023B000009301230CF062FF0028D1D003F028F82D
:1023C000CEE703F025F829E703F022F818E703F039
:1023D0001FF8F8E603F01CF8E6E603F019F87DE6CE
:1023E00003F016F86CE603F013F84CE603F010F86F
:1023F0003AE603F00DF81EE603F00AF806E603F0ED
:1024000007F8B6E503F004F8A4E503F001F888E561
:1024100002F0FEFF77E502F0FBFF57E502F0F8FF60
:1024200045E502F0F5FF29E502F0F2FF18E502F0BC
:10243000EFFFF8E402F0ECFFE6E402F0E9FFCAE4A3
:1024400002F0E6FFB8E402F0E3FF98E402F0E0FFF8
:1024500086E402F0DDFF66E402F0DAFF54E402F005
:10246000D7FFFFF7E8BB02F0D3FFFFF7D5BB02F0C1
:10247000CFFFFFF784BB02F0CBFFFFF772BB02F088
:10248000C7FFFFF751BB02F0C3FFFFF73EBB02F0EF
:10249000BFFFFFF721BB02F0BBFFFFF70FBB02F04E
:1024A000B7FFFFF7EFBA02F0B3FF01220821304671
:1024B00008F07CFA9DF80B3044453B7027467FF4CA
:1024C00069AFB1E602F0A4FFD7E602F0A1FFC5E6CE
:1024D00002F09EFF18E702F09BFFFAE602F098FF79
:1024E00021E702F095FFE5E638B5054626202946A6
:1024F000FEF744FB20B10446FFF79AFA204638BDA8
:102500002846FEF7E3FE0446FFF792FA204638BD60
:10251000704700BF08B501F087FFBDE8084001F033
:1025200007BF00BF01F082BF40687047416070473D
:102530004FF0E020084B094AD0F8FC1D41F08071B3
:10254000C0F8FC1DD3F8B01F0A43C3F8B02F1A68B7
:1025500042F001021A607047001000E055CEACC591
:10256000511A01EB5301B1FBF3F07047014B58686E
:10257000704700BF001000E0704700BF10B5044670
:102580000C2127F0C6FA204610BD00BF03680C4A94
:102590001B6910B5044649B193420DD1094B5868E7
:1025A000A26863689B1A0344636010BD934205D11F
:1025B000044B5868A06010BD9847F1E79847F9E7C9
:1025C0006D250090001000E0704700BF0000000083
:1025D00000B585B008220023002069469FED067BE8
:1025E000CDE902238DED007B07F0E6FB05B05DF839
:1025F00004FB00BFAFF30080E00100001001000009
:1026000030B585B000200D46144601A90190CDE9F2
:10261000020007F05FFC019820B10120DDE90223F0
:102620002A60236005B030BD10B50446042127F0B0
:1026300070FA204610BD00BF0821104808B508F008
:10264000AFF9012801D10E4B186080210D4808F028
:10265000A7F9012801D10A4B58604021094808F028
:102660009FF9012801D1064B98604021064808F0E7
:1026700097F9012801D1024BD86008BD0018025813
:10268000740100240004025800000258032827D8CF
:10269000DFE800F01D140B02124B40211248DA68EB
:1026A000B2FA82F2520908F081B90E4B40210F486C
:1026B0009A68B2FA82F2520908F078B9094B80217F
:1026C0000A485A68B2FA82F2520908F06FB9054B0B
:1026D000082107481A68B2FA82F2520908F066B96E
:1026E000704700BF74010024000002580004025823
:1026F00000180258032827D8DFE800F01D140B0249
:10270000124B40211248DA68003A18BF012208F043
:102710004DB90E4B40210F489A68003A18BF01226C
:1027200008F044B9094B80210A485A68003A18BF9A
:10273000012208F03BB9054B082107481A68003A06
:1027400018BF012208F032B9704700BF740100249D
:10275000000002580004025800180258032813D839
:10276000DFE800F00E0A06024021084808F022B90E
:102770004021074808F01EB98021054808F01AB921
:102780000821044808F016B9704700BF000002583D
:10279000000402580018025800207047012380F8F6
:1027A000781080F879307047002070470A1E034B7C
:1027B000416418BF01221A70704700BFCB36022453
:1027C00000207047836B084603B11847704700BF6D
:1027D0004FF6FF70704700BF704700BF08B5094B48
:1027E0001B888B4208D8084B1B88934204D80748A3
:1027F000074B01801A8008BD064B9E21064A0748F8
:1028000027F0B6F9C0360224C2360224C6360224A6
:10281000C8360224B0B0029014B1029058B10290B0
:1028200010B5044611F0C6FF23682046D3F8AC303B
:10283000BDE81040184700BF01F0F0BE01F0F4BE43
:1028400010B501F0DDFF12480023C0F88430BFF35B
:102850004F8FD0F8803043F6E074C3F34E3CC3F39F
:10286000C90E4FEA4C1C0CEA0401734641EA83721C
:10287000013BC0F874225A1CF8D1ACF1200C1CF1B9
:10288000200FF0D1BFF34F8FBFF36F8F10BD00BF8C
:1028900000ED00E001F09EBE02F0B0B802F09AB880
:1028A00001F0A2BE10B5044611F000FB6068036899
:1028B000BDE810401B69184711F0CEB910B50446A9
:1028C000882127F026F9204610BD00BF90F87A3005
:1028D0001BB1406803681B6818471846704700BF63
:1028E00090F8782090F834309A420B4B1A780BD03D
:1028F0004AB90A4A4FF0010C0949108883F800C010
:102900000B88088013807047002AFCD0034A4FF0E0
:10291000000C0349F1E700BFC4360224C23602248A
:10292000C03602244068044A03689B69934201D17F
:1029300000207047184700BF99270090A9B1026492
:10294000003AC16318BF01220C490A7002680C49A1
:10295000D2F88C208A4206D1191E0A4A436418BF55
:1029600001211170704719461047074B40F2D221E0
:10297000064A074810B527F0FBF800BFCA36022404
:10298000AD270090CB360224A0B10290D8B10290BE
:1029900058B1029008B503680446174DD3F880304B
:1029A0009847236820469B6F984701F0E3F8236817
:1029B00020461B6F984701220421104807F0F6FFBC
:1029C000012280210E4807F0F1FF01220D48114637
:1029D00007F0ECFF01F0CEF8236820461B6FAB42F6
:1029E00007D111F0E7FE23682046D3F8AC309847B2
:1029F000F0E79847EEE700BF21280090000002585A
:102A0000000C02580028025838B5044602F000F8BD
:102A100017482368E16BD3F88850226C854219D19E
:102A2000F9B1003A1349D3F88C3018BF012212488B
:102A30008B421249027011D1114B012261641A704C
:102A400004F17C052846FFF773FD0123256184F816
:102A5000703038BD094B2046A847F1E7204698471B
:102A6000EEE7084B40F2D221074A084827F080F8E9
:102A70003D290090AD270090CA360224000000D006
:102A8000CB360224A0B10290D8B1029058B1029086
:102A900008B5074B28B11868012111F0A5FE0120E7
:102AA00008BD0146186811F09FFE012008BD00BF57
:102AB000CC3602244069704790F84000704700BF50
:102AC000036B0BB101207047C06A003818BF0120AA
:102AD000704700BF80687047704700BF04308C4665
:102AE0000FC88CE80F007047704700BF08B5034A55
:102AF00040F2C511024B034827F03AF804B30290A4
:102B000000B3029060B3029010B50446482127F04C
:102B100000F8204610BD00BF2DE9F04F4A4D834616
:102B20001C46C068022383B0484F2B6103074FF453
:102B30007073474E18BF20F00F00DFF840A16B60A4
:102B400018BF1030DBF81030DFF83481286000093E
:102B500013F00F03DFF82C91E86000EB400018BF82
:102B6000C3F11003C001AB6000900020394B3A4D17
:102B700038602C601860394C394BCAF8000020606E
:102B800018603070DAF800303074364806EB031302
:102B9000354D016035485B6802604FF4504234485F
:102BA000344C9FED277B86ED027B86ED067B09F09A
:102BB0002DF8DBF84430C8F800302B6813B1D9F891
:102BC000003063BBD8F80000037A2BB9214B1B6897
:102BD0001B01F35C012B24D03B68012B06D1DAF8F2
:102BE00000301B01F35C0BB92B6813B30223236085
:102BF0002368022B09D02368012BDED100232B6030
:102C0000C9F8003003B0BDE8F08F1B4B4FF0FF3127
:102C100018680DF0C3FE2368012BCED1EEE7012327
:102C2000E5E7D9F80030002BD6D103681B69984737
:102C3000D2E702210E483B6009F030F90223D6E7C3
:102C40000000000000000000905B0024BC5B00243A
:102C50000800002488010024AC5B0024B85B002439
:102C60008C010024C05B0024B45B0024C45B0024FE
:102C700084920024B05B0024CC5B0024C85B002459
:102C8000A85B002484010024F8B5036801292F4EB5
:102C90000446DB6A38BF0121B3420D4642D1836846
:102CA00099422AD86B1EE269206B02EB031750B3DE
:102CB000A36B0F2B41D9036807F10806DB68314687
:102CC0009847206B1022616B03681B699847B0B16D
:102CD000236BE663BBB1626B937A517A1B0443EAC0
:102CE0000123117AD27A0B4343EA0263226A6561B7
:102CF000043A1A44A261F8BDA3681D46D2E70D2329
:102D000084F84030E4E707F11003E26AD118D25C9E
:102D100048788B78C9781B0442EA016243EA0023B1
:102D20001343E3E798478542BCD92368DB6AB34283
:102D3000E2D0204698470546B4E70920044B054AEF
:102D40009F2184F84000044826F012FFD52A009005
:102D5000CCB30290E0B3029060B302900000000098
:102D60002DE9F04F0446006B83B01546A669002894
:102D700000F0AD80A36B072B40F2B98003683146A9
:102D8000DB689847206B0822616B03681B699847D2
:102D9000002800F09180A769206B3B1DE6630028A6
:102DA00000F0AE809B1B0837D4E90D62F118F35C8C
:102DB0008E7891F801C0360446EA0C261E43CB7883
:102DC00046EA0366B242C0F0928003683946DB6887
:102DD0009847206B3246616B03681B69984710B9AE
:102DE0000D2384F84030616BE763002D58D0484BC9
:102DF0000022484F1D60484B3A60DB68474D03EBAB
:102E00004303DFF844A1DFF844B1DB014448CBF8C9
:102E100000200093434BCAF800202A701A602A74DD
:102E2000DAF800300260404A05EB03133F481160B6
:102E30003F4A5B6816604FF450423E4E3E4CDFF80E
:102E40001081DFF810919FED307B85ED027B85EDE1
:102E5000067B08F0DBFE17E0D8F80000037A2BB9F8
:102E6000DBF800301B01EB5C012B1DD03B68012B14
:102E700006D1DAF800301B01EB5C0BB93368FBB10B
:102E80000223236023685BB93368002BE4D0D9F8B0
:102E90000030002BE0D0012323602368002BF3D007
:102EA000012003B0BDE8F08FD9F80030002BDDD150
:102EB00003681B699847D9E70D2384F840306AE717
:102EC00002211A483B6008F0E9FF0223D9E7331DCD
:102ED000E16A0836CA18CB5C314450789678D278CB
:102EE000360443EA026346EA00261E437DE70920D2
:102EF000124B134A9F2184F84000124826F038FEF6
:102F00003E46E5E7AFF3008000000000000000004F
:102F1000AC5B0024BC5B0024905B00240800002410
:102F2000B85B00248C010024C05B00248492002440
:102F3000C45B0024B45B0024B05B0024CCB30290DB
:102F4000E0B3029060B30290C85B002488010024C3
:102F5000A85B00248401002443692DE9F047002B7D
:102F600000F0C0800546006BAC69002800F0A0802E
:102F7000AB6B072B40F2AB8003682146DB689847B8
:102F8000286B0822696B03681B699847002800F0CA
:102F90008B80AB69286B1A1DEC63002800F08A80D7
:102FA000121B6C6BA118A25C8C784E78240444EA46
:102FB00006241443CA7844EA02640D2743F230061B
:102FC0003AE0AB6B072B40F2828003682146DB6856
:102FD0009847286B0822696B03681B69984708B9F2
:102FE00085F84070286BAB69EC63002878D01B1B18
:102FF000696BCA18CB5C947992F805A0240492F806
:1030000004C092F8019044EA0A24D17992F803802E
:1030100043EA092392F802E044EA0C044EEA08224B
:1030200044EA016446F26431B34208BF8A420CBFED
:103030000123002335D0AB691C44AB6A04F10802BC
:103040009A4229D26B690934013324F00104C5E99D
:1030500005340028B5D1E96A04F1040EA21C01EB85
:10306000040C0B5D9CF8014001EB0E0C43EA0423B9
:103070008C188A5C647811F80E1042EA04229CF8DD
:1030800001E09CF802409CF803C0240441EA0C6172
:1030900044EA0E240C43C5E701212A6A0023C5E94E
:1030A00005121846BDE8F0870D2385F8403070E71B
:1030B000221D2346EC6AA118A25C4E788C78C97850
:1030C000240442EA016244EA0624144375E7092015
:1030D000074B084A9F2185F84000074826F048FD25
:1030E0001C46B8E7054BE521054A034826F040FD9C
:1030F000CCB30290E0B3029060B3029024B402908B
:1031000070B4029043692DE9F041002B00F0AD80CE
:103110000446006B0E46A56900285FD0A36B072B01
:1031200040F2A98003682946DB689847206B082293
:10313000616B03681B69984700284AD0206BA1691E
:10314000E563002849D001F1040C8A1C636BACEBE9
:10315000050C521B4D1B03EB0C0713F80CE003EBA3
:10316000050813F805C098F8015097F801804CEA5B
:10317000052CBD78FF782D0445EA082545EA0E05A3
:1031800045EA07659F189B5C7A7843EA02274A194B
:10319000A36A02F1080E9E4514D243F230039C4507
:1031A00039D146F264339F4235D1002D37D1724672
:1031B0000132636A22F001029A42A26102D0012028
:1031C000BDE8F0810122236A0020C4E90523BDE89F
:1031D000F0810D2384F84030B0E70D46E36AAF1C60
:1031E0002A1D591913F805C0981849784CEA012C82
:1031F0002946DD19DF5D6D789A5C47EA052790F86E
:1032000001E08578C37800202D0442EA036345EA93
:103210000E251D43BBE7A261002DC9D1C7E701F10F
:103220000807A761F0B1A36B9D4224D80368394613
:10323000DB689847206B2A46616B03681B699847D7
:1032400010B90D2384F84030616BE76326B1334633
:103250002A462046FFF760FCD4E9053201332A44B0
:103260006361A5E7E16A3944F0E7074BB121074AFA
:10327000074826F07DFC0920064B074A9F2184F869
:103280004000034826F074FC24B40290A4B40290D9
:1032900060B30290CCB30290E0B3029010B500226C
:1032A00004460E4B01201146E263236084F840205F
:1032B000C4E90522C4E90722C4E90922C4E90B22B2
:1032C000C4E90D22C4E90322C4E901220DF016FB72
:1032D000034B024620461A6010BD00BFC8B50290DD
:1032E000CC5B00242DE9F04F0021066B83B005462E
:1032F000816180F84010002E00F0B481836B472B71
:1033000040F2658233683046DB689847286B482274
:10331000696B03681B699847002800F0CE80002382
:103320002E6BAF69B146EB63002E00F09C81D5F89F
:1033300034A00422C3490AEB070B584626F018FFB5
:10334000002840F04D8207F108000422BE49A86120
:10335000504426F00DFF002840F05D8207F10C0874
:103360000422BA490AEB0800C5F8188026F000FFCD
:103370000190002840F045829BF812409BF81120F4
:1033800024049BF8133044EA02249BF810201443D1
:1033900054EA036400F02E8207F114000422AC49C1
:1033A000504426F0E5FE002800F08B800623DDF86F
:1033B00004B007F1180085F8403050440422A549B4
:1033C00026F0D6FE002800F08F80072385F84030D5
:1033D00044440834B9F1000F15D0AB6B0B2B40F20D
:1033E000F681D9F8003021464846DB689847286BBB
:1033F0000C22696B03681B69984710B90D2385F887
:1034000040302E6BEC6395F84090934F04F1080820
:10341000002E41D0EB6B0422686B3946A8EB030306
:10342000184426F0A5FE00283ED0B9F1000F3ED189
:10343000AB6AA34240F2B1800434002E46D0EA6B5E
:10344000D5E90D13A41A0B2B01EB0402095D947846
:1034500050784FEA0444D27844EA002444EA010454
:1034600044EA0264444440F2B28133682146304663
:10347000DB689847286B0C22696B03681B699847C7
:1034800010B90D2385F840302E6B04F1080895F82B
:103490004090EC63002EBDD1E86A042239464044D6
:1034A00026F066FE0028C0D1B9F1000F75D00A23BE
:1034B00085F8403003B0BDE8F08F0D2385F840302B
:1034C0002DE707F118004FF0010B76E7EB6A1A19A8
:1034D0001B5D51789478D278240443EA026344EA6D
:1034E00001241C43444491E7BBF1000F3FF470AF4B
:1034F00007F12001B9F1000F00F02581EB6B6A6B39
:10350000C91AC3F13000DFF858C112F801A002EB6C
:10351000010EC3F14001C3F1440338449EF801B0E9
:1035200039441F449EF802309EF803E01B0443EA2E
:103530000B2343EA0A0343EA0E63ACFB03C302EB2B
:10354000000C9B096B609CF802309CF801A01B04E6
:1035500012F800E09CF803C0501843EA0A2343EA3B
:103560000E0343EA0C63AB60837890F801C01B0440
:10357000515C43EA0C230B43C17843EA0163D11940
:10358000EB608B7848781B04D25D43EA0023134339
:10359000CA7843EA02632B611AE704F10C0304348E
:1035A000AB61002E00F0B480EB6BE41AD5E90D128C
:1035B00004F1020C671C11F804E0E01C11F80C3057
:1035C000032A11F807904FEA034343EA092343EA29
:1035D0000E0311F800E043EA0E6343446B6211F8F6
:1035E0000C3011F807C00F5D4FEA0344095C44EA50
:1035F0000C2444EA070444EA0164444440F2E780AE
:10360000336821463046DB689847286B0422696B93
:1036100003681B69984700286AD02B6BEC63002B6A
:1036200000F00381686B04220C4926F0A1FD0028FC
:1036300068D10122AB69EC616A612B6203B0BDE81D
:10364000F08F00BF00B50290B8B50290B0B50290FF
:10365000A8B5029090B5029098B50290A0B50290DE
:10366000D34D62103746D5F82C900422704909EBEF
:10367000070026F07DFD002840F0B28007F1080029
:1036800004226C49A861484426F072FD002840F0ED
:10369000C28007F10C080422674909EB0800C5F84D
:1036A000188026F065FD8346002840F0AA8007F1C7
:1036B000100309EB030219F8033051789478D2789B
:1036C000240443EA026344EA01241C4300F092808C
:1036D00007F1140004225949484426F049FD58B91D
:1036E00007F118004FF0010B48444FF0000965E660
:1036F0000D2385F8403090E7062307F1180085F880
:103700004030F1E70B2385F8403003B0BDE8F08F7F
:10371000E86A0219015D567893781B0443EA062390
:10372000D67841EA06610B4343446B62035D5178EE
:103730009478D278240443EA026344EA01241C43C7
:10374000444420446FE7EA6A07F1300E07F1400C69
:103750004437501812F801B002EB0E0190F801A0A6
:103760008378C0781B044BEA006043EA0A230343D2
:103770003348A0FB03039B096B6012F80E0091F81D
:1037800001E08B78C9781B0440EA016143EA0E230B
:1037900002EB0C0E0B43D119AB6012F80C009EF833
:1037A00001C09EF802309EF803E01B0440EA0E6060
:1037B00043EA0C230343EB60D25D48788B78C978E9
:1037C0001B0442EA016243EA00231343E3E60920B3
:1037D0001C4B1D4A9F2185F840001C4826F0C8F963
:1037E00003201B4B1B4A40F22D1185F8400017485F
:1037F00026F0BEF9184B4FF4A171164A134826F073
:10380000B7F90520154B134A4FF49E7185F8400017
:103810000E4826F0ADF90420114B0E4A40F2351146
:1038200085F84000094826F0A3F9E86A2044FAE642
:1038300000B50290B8B50290B0B50290A8B502905C
:10384000D34D6210CCB30290E0B3029060B302900B
:1038500008B5029024B5029084B502906CB5029030
:1038600054B5029010B40024C0E90A2104635DF845
:10387000044BFFF737BD00BF10B50B6804460022AC
:1038800008469B68C4E90B21984703462046A3627B
:10389000BDE81040FFF726BD4B68012B15D0022B69
:1038A0000BD04BB9CB68580724D18B685A0703D08B
:1038B00023F0070308338B607047CB681A07F4D0F6
:1038C00023F00F031033CB60EFE7CB681A0703D068
:1038D00023F00F031033CB608A68100703D022F067
:1038E0000F0210328A601B090549120902FB03F31B
:1038F0000B60704723F007030833CB60D5E700BFA8
:10390000A45B002410B40C4C0C4A236812680B44CE
:103910009342236002D35DF8044B7047D21A084BE0
:103920001C68B2F5504F214428BF4FF450425DF857
:10393000044B196008F0E4B9B85B0024C45B0024B0
:10394000C05B0024F8B5224C0646224D236820684F
:1039500021491B0105EB0010204FD1F800C0826007
:103960002068FA6805EB0010C0F80CC00868104425
:1039700008602168013121600121E95423688B42EC
:1039800001D90023236023681B01EB5C83B9236802
:1039900002EB4202304605EB0315D201696808F0DC
:1039A000B3F90F4B1B681A7A0AB99B7A4BB1F8BD71
:1039B0000221304608F06CF90A4B0121FA681960BF
:1039C000E5E7094B1868BDE8F8400DF01BB800BFEB
:1039D000C85B0024080000248C010024905B0024B4
:1039E000A85B0024BC5B0024CC5B002472B6FEE71D
:1039F000014B01221A607047B45B002470B51C496A
:103A00000223C5681B4C0A6863632B011A4EB3FB83
:103A1000F2FC02FB1C324B68366803FB0CFCCB68E3
:103A2000A6EB030E0E694FEA0C1C754506FB02F26D
:103A300018D38968C1F1100141EA035161640F494B
:103A4000C3F11E034068002409681B011144094AA0
:103A50006144D16313640A490A4B1461D161D06097
:103A6000136070BD190541F010016164E7E700BF04
:103A7000905B002400100052A45B0024AC5B002487
:103A80000B0009FF010201000C4B002101701A68B4
:103A9000816001321A601A68012A00D91960084B46
:103AA00008491B68C968C2685B1A9A4202D3064B70
:103AB00001221A60054B18680CF0A4BF880100248D
:103AC000A45B0024905B002484010024CC5B0024D0
:103AD0000121002208B508460CF010FF0B4B1860BE
:103AE00040B10022042101200CF0C2FF084B1860F5
:103AF00030B108BD074B2821074A084826F038F89E
:103B0000074B2C21044A054826F032F8D45B0024E8
:103B1000D05B002404B6029050B6029080B60290AA
:103B2000E0B60290024B4FF0FF3118680CF036BF40
:103B3000D45B0024014B18680CF064BFD45B0024F4
:103B4000024B002118680CF029BF00BFD45B002491
:103B5000014B18680CF056BFD45B002403480023C7
:103B600003491A4600680CF0C1BF00BFD05B0024B7
:103B70002800002410B5002382B0074C1A4601A982
